{
  "contractName": "DTRegistry",
  "abi": [
    {
      "inputs": [
        {
          "internalType": "string",
          "name": "name_",
          "type": "string"
        },
        {
          "internalType": "string",
          "name": "symbol_",
          "type": "string"
        },
        {
          "internalType": "string",
          "name": "cesslink_",
          "type": "string"
        }
      ],
      "stateMutability": "nonpayable",
      "type": "constructor"
    },
    {
      "anonymous": false,
      "inputs": [
        {
          "indexed": true,
          "internalType": "address",
          "name": "account",
          "type": "address"
        },
        {
          "indexed": true,
          "internalType": "address",
          "name": "operator",
          "type": "address"
        },
        {
          "indexed": false,
          "internalType": "bool",
          "name": "approved",
          "type": "bool"
        }
      ],
      "name": "ApprovalForAll",
      "type": "event"
    },
    {
      "anonymous": false,
      "inputs": [],
      "name": "MintNFT",
      "type": "event"
    },
    {
      "anonymous": false,
      "inputs": [
        {
          "indexed": true,
          "internalType": "bytes32",
          "name": "role",
          "type": "bytes32"
        },
        {
          "indexed": true,
          "internalType": "bytes32",
          "name": "previousAdminRole",
          "type": "bytes32"
        },
        {
          "indexed": true,
          "internalType": "bytes32",
          "name": "newAdminRole",
          "type": "bytes32"
        }
      ],
      "name": "RoleAdminChanged",
      "type": "event"
    },
    {
      "anonymous": false,
      "inputs": [
        {
          "indexed": true,
          "internalType": "bytes32",
          "name": "role",
          "type": "bytes32"
        },
        {
          "indexed": true,
          "internalType": "address",
          "name": "account",
          "type": "address"
        },
        {
          "indexed": true,
          "internalType": "address",
          "name": "sender",
          "type": "address"
        }
      ],
      "name": "RoleGranted",
      "type": "event"
    },
    {
      "anonymous": false,
      "inputs": [
        {
          "indexed": true,
          "internalType": "bytes32",
          "name": "role",
          "type": "bytes32"
        },
        {
          "indexed": true,
          "internalType": "address",
          "name": "account",
          "type": "address"
        },
        {
          "indexed": true,
          "internalType": "address",
          "name": "sender",
          "type": "address"
        }
      ],
      "name": "RoleRevoked",
      "type": "event"
    },
    {
      "anonymous": false,
      "inputs": [
        {
          "indexed": true,
          "internalType": "address",
          "name": "operator",
          "type": "address"
        },
        {
          "indexed": true,
          "internalType": "address",
          "name": "from",
          "type": "address"
        },
        {
          "indexed": true,
          "internalType": "address",
          "name": "to",
          "type": "address"
        },
        {
          "indexed": false,
          "internalType": "uint256[]",
          "name": "ids",
          "type": "uint256[]"
        },
        {
          "indexed": false,
          "internalType": "uint256[]",
          "name": "values",
          "type": "uint256[]"
        }
      ],
      "name": "TransferBatch",
      "type": "event"
    },
    {
      "anonymous": false,
      "inputs": [
        {
          "indexed": true,
          "internalType": "address",
          "name": "operator",
          "type": "address"
        },
        {
          "indexed": true,
          "internalType": "address",
          "name": "from",
          "type": "address"
        },
        {
          "indexed": true,
          "internalType": "address",
          "name": "to",
          "type": "address"
        },
        {
          "indexed": false,
          "internalType": "uint256",
          "name": "id",
          "type": "uint256"
        },
        {
          "indexed": false,
          "internalType": "uint256",
          "name": "value",
          "type": "uint256"
        }
      ],
      "name": "TransferSingle",
      "type": "event"
    },
    {
      "anonymous": false,
      "inputs": [
        {
          "indexed": false,
          "internalType": "string",
          "name": "value",
          "type": "string"
        },
        {
          "indexed": true,
          "internalType": "uint256",
          "name": "id",
          "type": "uint256"
        }
      ],
      "name": "URI",
      "type": "event"
    },
    {
      "anonymous": false,
      "inputs": [],
      "name": "UpdateDesignDrawings",
      "type": "event"
    },
    {
      "anonymous": false,
      "inputs": [],
      "name": "UpdateLife",
      "type": "event"
    },
    {
      "anonymous": false,
      "inputs": [],
      "name": "UpdateMaintenanceLogs",
      "type": "event"
    },
    {
      "anonymous": false,
      "inputs": [],
      "name": "UpdateManufacturingProgress",
      "type": "event"
    },
    {
      "anonymous": false,
      "inputs": [],
      "name": "UpdateRole",
      "type": "event"
    },
    {
      "anonymous": false,
      "inputs": [],
      "name": "UpdateServiceLogs",
      "type": "event"
    },
    {
      "inputs": [],
      "name": "AC_MANUFACTURER",
      "outputs": [
        {
          "internalType": "bytes32",
          "name": "",
          "type": "bytes32"
        }
      ],
      "stateMutability": "view",
      "type": "function"
    },
    {
      "inputs": [],
      "name": "AS_MANUFACTURER",
      "outputs": [
        {
          "internalType": "bytes32",
          "name": "",
          "type": "bytes32"
        }
      ],
      "stateMutability": "view",
      "type": "function"
    },
    {
      "inputs": [],
      "name": "DEFAULT_ADMIN_ROLE",
      "outputs": [
        {
          "internalType": "bytes32",
          "name": "",
          "type": "bytes32"
        }
      ],
      "stateMutability": "view",
      "type": "function"
    },
    {
      "inputs": [],
      "name": "DESIGNER",
      "outputs": [
        {
          "internalType": "bytes32",
          "name": "",
          "type": "bytes32"
        }
      ],
      "stateMutability": "view",
      "type": "function"
    },
    {
      "inputs": [],
      "name": "J_DESIGNER",
      "outputs": [
        {
          "internalType": "bytes32",
          "name": "",
          "type": "bytes32"
        }
      ],
      "stateMutability": "view",
      "type": "function"
    },
    {
      "inputs": [],
      "name": "MAINTAINER",
      "outputs": [
        {
          "internalType": "bytes32",
          "name": "",
          "type": "bytes32"
        }
      ],
      "stateMutability": "view",
      "type": "function"
    },
    {
      "inputs": [],
      "name": "MANUFACTURER",
      "outputs": [
        {
          "internalType": "bytes32",
          "name": "",
          "type": "bytes32"
        }
      ],
      "stateMutability": "view",
      "type": "function"
    },
    {
      "inputs": [],
      "name": "OWNER",
      "outputs": [
        {
          "internalType": "bytes32",
          "name": "",
          "type": "bytes32"
        }
      ],
      "stateMutability": "view",
      "type": "function"
    },
    {
      "inputs": [],
      "name": "O_SERVICER",
      "outputs": [
        {
          "internalType": "bytes32",
          "name": "",
          "type": "bytes32"
        }
      ],
      "stateMutability": "view",
      "type": "function"
    },
    {
      "inputs": [],
      "name": "RECYCLER",
      "outputs": [
        {
          "internalType": "bytes32",
          "name": "",
          "type": "bytes32"
        }
      ],
      "stateMutability": "view",
      "type": "function"
    },
    {
      "inputs": [],
      "name": "SERVICER",
      "outputs": [
        {
          "internalType": "bytes32",
          "name": "",
          "type": "bytes32"
        }
      ],
      "stateMutability": "view",
      "type": "function"
    },
    {
      "inputs": [],
      "name": "S_DESIGNER",
      "outputs": [
        {
          "internalType": "bytes32",
          "name": "",
          "type": "bytes32"
        }
      ],
      "stateMutability": "view",
      "type": "function"
    },
    {
      "inputs": [],
      "name": "T_SERVICER",
      "outputs": [
        {
          "internalType": "bytes32",
          "name": "",
          "type": "bytes32"
        }
      ],
      "stateMutability": "view",
      "type": "function"
    },
    {
      "inputs": [],
      "name": "attribute",
      "outputs": [
        {
          "internalType": "enum DTRegistry.Lifecyclstate",
          "name": "",
          "type": "uint8"
        }
      ],
      "stateMutability": "view",
      "type": "function"
    },
    {
      "inputs": [
        {
          "internalType": "address",
          "name": "account",
          "type": "address"
        },
        {
          "internalType": "uint256",
          "name": "id",
          "type": "uint256"
        }
      ],
      "name": "balanceOf",
      "outputs": [
        {
          "internalType": "uint256",
          "name": "",
          "type": "uint256"
        }
      ],
      "stateMutability": "view",
      "type": "function"
    },
    {
      "inputs": [
        {
          "internalType": "address[]",
          "name": "accounts",
          "type": "address[]"
        },
        {
          "internalType": "uint256[]",
          "name": "ids",
          "type": "uint256[]"
        }
      ],
      "name": "balanceOfBatch",
      "outputs": [
        {
          "internalType": "uint256[]",
          "name": "",
          "type": "uint256[]"
        }
      ],
      "stateMutability": "view",
      "type": "function"
    },
    {
      "inputs": [],
      "name": "designDrawings",
      "outputs": [
        {
          "internalType": "string",
          "name": "",
          "type": "string"
        }
      ],
      "stateMutability": "view",
      "type": "function"
    },
    {
      "inputs": [
        {
          "internalType": "uint256",
          "name": "tokenId",
          "type": "uint256"
        }
      ],
      "name": "exists",
      "outputs": [
        {
          "internalType": "bool",
          "name": "",
          "type": "bool"
        }
      ],
      "stateMutability": "view",
      "type": "function"
    },
    {
      "inputs": [
        {
          "internalType": "bytes32",
          "name": "role",
          "type": "bytes32"
        }
      ],
      "name": "getRoleAdmin",
      "outputs": [
        {
          "internalType": "bytes32",
          "name": "",
          "type": "bytes32"
        }
      ],
      "stateMutability": "view",
      "type": "function"
    },
    {
      "inputs": [
        {
          "internalType": "bytes32",
          "name": "role",
          "type": "bytes32"
        },
        {
          "internalType": "uint256",
          "name": "index",
          "type": "uint256"
        }
      ],
      "name": "getRoleMember",
      "outputs": [
        {
          "internalType": "address",
          "name": "",
          "type": "address"
        }
      ],
      "stateMutability": "view",
      "type": "function"
    },
    {
      "inputs": [
        {
          "internalType": "bytes32",
          "name": "role",
          "type": "bytes32"
        }
      ],
      "name": "getRoleMemberCount",
      "outputs": [
        {
          "internalType": "uint256",
          "name": "",
          "type": "uint256"
        }
      ],
      "stateMutability": "view",
      "type": "function"
    },
    {
      "inputs": [
        {
          "internalType": "bytes32",
          "name": "role",
          "type": "bytes32"
        },
        {
          "internalType": "address",
          "name": "account",
          "type": "address"
        }
      ],
      "name": "grantRole",
      "outputs": [],
      "stateMutability": "nonpayable",
      "type": "function"
    },
    {
      "inputs": [
        {
          "internalType": "bytes32",
          "name": "role",
          "type": "bytes32"
        },
        {
          "internalType": "address",
          "name": "account",
          "type": "address"
        }
      ],
      "name": "hasRole",
      "outputs": [
        {
          "internalType": "bool",
          "name": "",
          "type": "bool"
        }
      ],
      "stateMutability": "view",
      "type": "function"
    },
    {
      "inputs": [
        {
          "internalType": "address",
          "name": "account",
          "type": "address"
        },
        {
          "internalType": "address",
          "name": "operator",
          "type": "address"
        }
      ],
      "name": "isApprovedForAll",
      "outputs": [
        {
          "internalType": "bool",
          "name": "",
          "type": "bool"
        }
      ],
      "stateMutability": "view",
      "type": "function"
    },
    {
      "inputs": [],
      "name": "maintenanceLogs",
      "outputs": [
        {
          "internalType": "string",
          "name": "",
          "type": "string"
        }
      ],
      "stateMutability": "view",
      "type": "function"
    },
    {
      "inputs": [],
      "name": "manufacturingProgress",
      "outputs": [
        {
          "internalType": "string",
          "name": "",
          "type": "string"
        }
      ],
      "stateMutability": "view",
      "type": "function"
    },
    {
      "inputs": [],
      "name": "name",
      "outputs": [
        {
          "internalType": "string",
          "name": "",
          "type": "string"
        }
      ],
      "stateMutability": "view",
      "type": "function"
    },
    {
      "inputs": [
        {
          "internalType": "bytes32",
          "name": "role",
          "type": "bytes32"
        },
        {
          "internalType": "address",
          "name": "account",
          "type": "address"
        }
      ],
      "name": "renounceRole",
      "outputs": [],
      "stateMutability": "nonpayable",
      "type": "function"
    },
    {
      "inputs": [
        {
          "internalType": "bytes32",
          "name": "role",
          "type": "bytes32"
        },
        {
          "internalType": "address",
          "name": "account",
          "type": "address"
        }
      ],
      "name": "revokeRole",
      "outputs": [],
      "stateMutability": "nonpayable",
      "type": "function"
    },
    {
      "inputs": [
        {
          "internalType": "address",
          "name": "from",
          "type": "address"
        },
        {
          "internalType": "address",
          "name": "to",
          "type": "address"
        },
        {
          "internalType": "uint256[]",
          "name": "ids",
          "type": "uint256[]"
        },
        {
          "internalType": "uint256[]",
          "name": "amounts",
          "type": "uint256[]"
        },
        {
          "internalType": "bytes",
          "name": "data",
          "type": "bytes"
        }
      ],
      "name": "safeBatchTransferFrom",
      "outputs": [],
      "stateMutability": "nonpayable",
      "type": "function"
    },
    {
      "inputs": [
        {
          "internalType": "address",
          "name": "from",
          "type": "address"
        },
        {
          "internalType": "address",
          "name": "to",
          "type": "address"
        },
        {
          "internalType": "uint256",
          "name": "id",
          "type": "uint256"
        },
        {
          "internalType": "uint256",
          "name": "amount",
          "type": "uint256"
        },
        {
          "internalType": "bytes",
          "name": "data",
          "type": "bytes"
        }
      ],
      "name": "safeTransferFrom",
      "outputs": [],
      "stateMutability": "nonpayable",
      "type": "function"
    },
    {
      "inputs": [],
      "name": "serviceLogs",
      "outputs": [
        {
          "internalType": "string",
          "name": "",
          "type": "string"
        }
      ],
      "stateMutability": "view",
      "type": "function"
    },
    {
      "inputs": [
        {
          "internalType": "address",
          "name": "operator",
          "type": "address"
        },
        {
          "internalType": "bool",
          "name": "approved",
          "type": "bool"
        }
      ],
      "name": "setApprovalForAll",
      "outputs": [],
      "stateMutability": "nonpayable",
      "type": "function"
    },
    {
      "inputs": [],
      "name": "symbol",
      "outputs": [
        {
          "internalType": "string",
          "name": "",
          "type": "string"
        }
      ],
      "stateMutability": "view",
      "type": "function"
    },
    {
      "inputs": [
        {
          "internalType": "uint256",
          "name": "index",
          "type": "uint256"
        }
      ],
      "name": "tokenByIndex",
      "outputs": [
        {
          "internalType": "uint256",
          "name": "",
          "type": "uint256"
        }
      ],
      "stateMutability": "view",
      "type": "function"
    },
    {
      "inputs": [
        {
          "internalType": "address",
          "name": "owner",
          "type": "address"
        }
      ],
      "name": "tokenCountOf",
      "outputs": [
        {
          "internalType": "uint256",
          "name": "",
          "type": "uint256"
        }
      ],
      "stateMutability": "view",
      "type": "function"
    },
    {
      "inputs": [
        {
          "internalType": "address",
          "name": "owner",
          "type": "address"
        },
        {
          "internalType": "uint256",
          "name": "index",
          "type": "uint256"
        }
      ],
      "name": "tokenOfOwnerByIndex",
      "outputs": [
        {
          "internalType": "uint256",
          "name": "",
          "type": "uint256"
        }
      ],
      "stateMutability": "view",
      "type": "function"
    },
    {
      "inputs": [
        {
          "internalType": "uint256",
          "name": "offset",
          "type": "uint256"
        },
        {
          "internalType": "uint256",
          "name": "limit",
          "type": "uint256"
        }
      ],
      "name": "tokens",
      "outputs": [
        {
          "internalType": "uint256",
          "name": "total",
          "type": "uint256"
        },
        {
          "internalType": "uint256[]",
          "name": "tokenIds",
          "type": "uint256[]"
        }
      ],
      "stateMutability": "view",
      "type": "function"
    },
    {
      "inputs": [
        {
          "internalType": "address",
          "name": "owner",
          "type": "address"
        },
        {
          "internalType": "uint256",
          "name": "offset",
          "type": "uint256"
        },
        {
          "internalType": "uint256",
          "name": "limit",
          "type": "uint256"
        }
      ],
      "name": "tokensOf",
      "outputs": [
        {
          "internalType": "uint256",
          "name": "total",
          "type": "uint256"
        },
        {
          "internalType": "uint256[]",
          "name": "tokenIds",
          "type": "uint256[]"
        }
      ],
      "stateMutability": "view",
      "type": "function"
    },
    {
      "inputs": [],
      "name": "totalSupply",
      "outputs": [
        {
          "internalType": "uint256",
          "name": "",
          "type": "uint256"
        }
      ],
      "stateMutability": "view",
      "type": "function"
    },
    {
      "inputs": [
        {
          "internalType": "uint256",
          "name": "tokenId",
          "type": "uint256"
        }
      ],
      "name": "totalSupply",
      "outputs": [
        {
          "internalType": "uint256",
          "name": "",
          "type": "uint256"
        }
      ],
      "stateMutability": "view",
      "type": "function"
    },
    {
      "inputs": [
        {
          "internalType": "uint256",
          "name": "state",
          "type": "uint256"
        }
      ],
      "name": "updatelife",
      "outputs": [],
      "stateMutability": "nonpayable",
      "type": "function"
    },
    {
      "inputs": [
        {
          "internalType": "address",
          "name": "designer_",
          "type": "address"
        }
      ],
      "name": "addDesigner",
      "outputs": [],
      "stateMutability": "nonpayable",
      "type": "function"
    },
    {
      "inputs": [
        {
          "internalType": "address",
          "name": "designer_",
          "type": "address"
        }
      ],
      "name": "removeDesigner",
      "outputs": [],
      "stateMutability": "nonpayable",
      "type": "function"
    },
    {
      "inputs": [
        {
          "internalType": "address",
          "name": "jdesigner_",
          "type": "address"
        }
      ],
      "name": "addJDesigner",
      "outputs": [],
      "stateMutability": "nonpayable",
      "type": "function"
    },
    {
      "inputs": [
        {
          "internalType": "address",
          "name": "jdesigner_",
          "type": "address"
        }
      ],
      "name": "removeJDesigner",
      "outputs": [],
      "stateMutability": "nonpayable",
      "type": "function"
    },
    {
      "inputs": [
        {
          "internalType": "address",
          "name": "sdesigner_",
          "type": "address"
        }
      ],
      "name": "addSDesigner",
      "outputs": [],
      "stateMutability": "nonpayable",
      "type": "function"
    },
    {
      "inputs": [
        {
          "internalType": "address",
          "name": "sdesigner_",
          "type": "address"
        }
      ],
      "name": "removeSDesigner",
      "outputs": [],
      "stateMutability": "nonpayable",
      "type": "function"
    },
    {
      "inputs": [
        {
          "internalType": "address",
          "name": "manufacturer_",
          "type": "address"
        }
      ],
      "name": "addManufacturer",
      "outputs": [],
      "stateMutability": "nonpayable",
      "type": "function"
    },
    {
      "inputs": [
        {
          "internalType": "address",
          "name": "manufacturer_",
          "type": "address"
        }
      ],
      "name": "removeManufacturer",
      "outputs": [],
      "stateMutability": "nonpayable",
      "type": "function"
    },
    {
      "inputs": [
        {
          "internalType": "address",
          "name": "acmanufacturer_",
          "type": "address"
        }
      ],
      "name": "addACManufacturer",
      "outputs": [],
      "stateMutability": "nonpayable",
      "type": "function"
    },
    {
      "inputs": [
        {
          "internalType": "address",
          "name": "acmanufacturer_",
          "type": "address"
        }
      ],
      "name": "removeACManufacturer",
      "outputs": [],
      "stateMutability": "nonpayable",
      "type": "function"
    },
    {
      "inputs": [
        {
          "internalType": "address",
          "name": "asmanufacturer_",
          "type": "address"
        }
      ],
      "name": "addASManufacturer",
      "outputs": [],
      "stateMutability": "nonpayable",
      "type": "function"
    },
    {
      "inputs": [
        {
          "internalType": "address",
          "name": "asmanufacturer_",
          "type": "address"
        }
      ],
      "name": "removeASManufacturer",
      "outputs": [],
      "stateMutability": "nonpayable",
      "type": "function"
    },
    {
      "inputs": [
        {
          "internalType": "address",
          "name": "servicer_",
          "type": "address"
        }
      ],
      "name": "addServicer",
      "outputs": [],
      "stateMutability": "nonpayable",
      "type": "function"
    },
    {
      "inputs": [
        {
          "internalType": "address",
          "name": "servicer_",
          "type": "address"
        }
      ],
      "name": "removeServicer",
      "outputs": [],
      "stateMutability": "nonpayable",
      "type": "function"
    },
    {
      "inputs": [
        {
          "internalType": "address",
          "name": "oservicer_",
          "type": "address"
        }
      ],
      "name": "addOServicer",
      "outputs": [],
      "stateMutability": "nonpayable",
      "type": "function"
    },
    {
      "inputs": [
        {
          "internalType": "address",
          "name": "oservicer_",
          "type": "address"
        }
      ],
      "name": "removeOServicer",
      "outputs": [],
      "stateMutability": "nonpayable",
      "type": "function"
    },
    {
      "inputs": [
        {
          "internalType": "address",
          "name": "tservicer_",
          "type": "address"
        }
      ],
      "name": "addTServicer",
      "outputs": [],
      "stateMutability": "nonpayable",
      "type": "function"
    },
    {
      "inputs": [
        {
          "internalType": "address",
          "name": "tservicer_",
          "type": "address"
        }
      ],
      "name": "removeTServicer",
      "outputs": [],
      "stateMutability": "nonpayable",
      "type": "function"
    },
    {
      "inputs": [
        {
          "internalType": "address",
          "name": "maintainer_",
          "type": "address"
        }
      ],
      "name": "addMaintainer",
      "outputs": [],
      "stateMutability": "nonpayable",
      "type": "function"
    },
    {
      "inputs": [
        {
          "internalType": "address",
          "name": "maintainer_",
          "type": "address"
        }
      ],
      "name": "removeMaintainer",
      "outputs": [],
      "stateMutability": "nonpayable",
      "type": "function"
    },
    {
      "inputs": [
        {
          "internalType": "address",
          "name": "recycler_",
          "type": "address"
        }
      ],
      "name": "addRecycler",
      "outputs": [],
      "stateMutability": "nonpayable",
      "type": "function"
    },
    {
      "inputs": [
        {
          "internalType": "address",
          "name": "recycler_",
          "type": "address"
        }
      ],
      "name": "removeRecycler",
      "outputs": [],
      "stateMutability": "nonpayable",
      "type": "function"
    },
    {
      "inputs": [
        {
          "internalType": "string",
          "name": "drawings",
          "type": "string"
        }
      ],
      "name": "addDesignDrawings",
      "outputs": [],
      "stateMutability": "nonpayable",
      "type": "function"
    },
    {
      "inputs": [
        {
          "internalType": "string",
          "name": "progress",
          "type": "string"
        }
      ],
      "name": "addManufacturingProgress",
      "outputs": [],
      "stateMutability": "nonpayable",
      "type": "function"
    },
    {
      "inputs": [
        {
          "internalType": "string",
          "name": "slogs",
          "type": "string"
        }
      ],
      "name": "addServiceLogs",
      "outputs": [],
      "stateMutability": "nonpayable",
      "type": "function"
    },
    {
      "inputs": [
        {
          "internalType": "string",
          "name": "mlogs",
          "type": "string"
        }
      ],
      "name": "addMaintenanceLogs",
      "outputs": [],
      "stateMutability": "nonpayable",
      "type": "function"
    },
    {
      "inputs": [
        {
          "internalType": "address",
          "name": "to",
          "type": "address"
        },
        {
          "internalType": "uint256",
          "name": "amount",
          "type": "uint256"
        },
        {
          "internalType": "bytes",
          "name": "data",
          "type": "bytes"
        }
      ],
      "name": "mint",
      "outputs": [],
      "stateMutability": "nonpayable",
      "type": "function"
    },
    {
      "inputs": [
        {
          "internalType": "string",
          "name": "newuri",
          "type": "string"
        }
      ],
      "name": "setURI",
      "outputs": [],
      "stateMutability": "nonpayable",
      "type": "function"
    },
    {
      "inputs": [
        {
          "internalType": "uint256",
          "name": "tokenId",
          "type": "uint256"
        }
      ],
      "name": "uri",
      "outputs": [
        {
          "internalType": "string",
          "name": "",
          "type": "string"
        }
      ],
      "stateMutability": "view",
      "type": "function"
    },
    {
      "inputs": [
        {
          "internalType": "bytes4",
          "name": "interfaceId",
          "type": "bytes4"
        }
      ],
      "name": "supportsInterface",
      "outputs": [
        {
          "internalType": "bool",
          "name": "",
          "type": "bool"
        }
      ],
      "stateMutability": "view",
      "type": "function"
    }
  ],
  "bytecode": "0x60806040523480156200001157600080fd5b5060405162007f5638038062007f56833981810160405281019062000037919062000887565b8282826200004b816200041560201b60201c565b5081600990805190602001906200006492919062000722565b5080600a90805190602001906200007d92919062000722565b505050620000906200043160201b60201c565b6200009b57620003a7565b6000600167ffffffffffffffff811115620000df577f4e487b7100000000000000000000000000000000000000000000000000000000600052604160045260246000fd5b6040519080825280602002602001820160405280156200010e5781602001602082028036833780820191505090505b5090506000816000815181106200014e577f4e487b7100000000000000000000000000000000000000000000000000000000600052603260045260246000fd5b602002602001019073ffffffffffffffffffffffffffffffffffffffff16908173ffffffffffffffffffffffffffffffffffffffff168152505073088800000000000000000000000000000000000173ffffffffffffffffffffffffffffffffffffffff166310128d3e826040518263ffffffff1660e01b8152600401620001d7919062000a5a565b600060405180830381600087803b158015620001f257600080fd5b505af115801562000207573d6000803e3d6000fd5b5050505073088800000000000000000000000000000000000073ffffffffffffffffffffffffffffffffffffffff1663c55b6bb73060006040518363ffffffff1660e01b81526004016200025d92919062000a2d565b600060405180830381600087803b1580156200027857600080fd5b505af11580156200028d573d6000803e3d6000fd5b50505050600073ffffffffffffffffffffffffffffffffffffffff1673088800000000000000000000000000000000000073ffffffffffffffffffffffffffffffffffffffff166364efb22b306040518263ffffffff1660e01b8152600401620002f8919062000a10565b60206040518083038186803b1580156200031157600080fd5b505afa15801562000326573d6000803e3d6000fd5b505050506040513d601f19601f820116820180604052508101906200034c91906200085b565b73ffffffffffffffffffffffffffffffffffffffff1614620003a5576040517f08c379a00000000000000000000000000000000000000000000000000000000081526004016200039c9062000a7e565b60405180910390fd5b505b620003cb6000801b620003bf6200047960201b60201c565b6200048160201b60201c565b6200040c7f6270edb7c868f86fda4adedba75108201087268ea345934db8bad688e1feb91b620004006200047960201b60201c565b6200048160201b60201c565b50505062000c69565b80600490805190602001906200042d92919062000722565b5050565b600062000473731820a4b7618bde71dce8cdc73aab6c95905fad2473ffffffffffffffffffffffffffffffffffffffff166200049760201b6200340d1760201c565b15905090565b600033905090565b620004938282620004aa60201b60201c565b5050565b600080823b905060008111915050919050565b620004c18282620004f260201b620034201760201c565b620004ed8160016000858152602001908152602001600020620005e360201b620035001790919060201c565b505050565b6200050482826200061b60201b60201c565b620005df57600160008084815260200190815260200160002060000160008373ffffffffffffffffffffffffffffffffffffffff1673ffffffffffffffffffffffffffffffffffffffff16815260200190815260200160002060006101000a81548160ff021916908315150217905550620005846200047960201b60201c565b73ffffffffffffffffffffffffffffffffffffffff168173ffffffffffffffffffffffffffffffffffffffff16837f2f8788117e7eff1d82e926ec794901d17c78024a50270940304540a733656f0d60405160405180910390a45b5050565b600062000613836000018373ffffffffffffffffffffffffffffffffffffffff1660001b6200068560201b60201c565b905092915050565b600080600084815260200190815260200160002060000160008373ffffffffffffffffffffffffffffffffffffffff1673ffffffffffffffffffffffffffffffffffffffff16815260200190815260200160002060009054906101000a900460ff16905092915050565b6000620006998383620006ff60201b60201c565b620006f4578260000182908060018154018082558091505060019003906000526020600020016000909190919091505582600001805490508360010160008481526020019081526020016000208190555060019050620006f9565b600090505b92915050565b600080836001016000848152602001908152602001600020541415905092915050565b828054620007309062000bbb565b90600052602060002090601f016020900481019282620007545760008555620007a0565b82601f106200076f57805160ff1916838001178555620007a0565b82800160010185558215620007a0579182015b828111156200079f57825182559160200191906001019062000782565b5b509050620007af9190620007b3565b5090565b5b80821115620007ce576000816000905550600101620007b4565b5090565b6000620007e9620007e38462000ad4565b62000aa0565b9050828152602081018484840111156200080257600080fd5b6200080f84828562000b85565b509392505050565b600081519050620008288162000c4f565b92915050565b600082601f8301126200084057600080fd5b815162000852848260208601620007d2565b91505092915050565b6000602082840312156200086e57600080fd5b60006200087e8482850162000817565b91505092915050565b6000806000606084860312156200089d57600080fd5b600084015167ffffffffffffffff811115620008b857600080fd5b620008c6868287016200082e565b935050602084015167ffffffffffffffff811115620008e457600080fd5b620008f2868287016200082e565b925050604084015167ffffffffffffffff8111156200091057600080fd5b6200091e868287016200082e565b9150509250925092565b600062000936838362000942565b60208301905092915050565b6200094d8162000b51565b82525050565b6200095e8162000b51565b82525050565b6000620009718262000b17565b6200097d818562000b2f565b93506200098a8362000b07565b8060005b83811015620009c1578151620009a5888262000928565b9750620009b28362000b22565b9250506001810190506200098e565b5085935050505092915050565b6000620009dd60158362000b40565b91507f726571756972652061646d696e203d3d206e756c6c00000000000000000000006000830152602082019050919050565b600060208201905062000a27600083018462000953565b92915050565b600060408201905062000a44600083018562000953565b62000a53602083018462000953565b9392505050565b6000602082019050818103600083015262000a76818462000964565b905092915050565b6000602082019050818103600083015262000a9981620009ce565b9050919050565b6000604051905081810181811067ffffffffffffffff8211171562000aca5762000ac962000c20565b5b8060405250919050565b600067ffffffffffffffff82111562000af25762000af162000c20565b5b601f19601f8301169050602081019050919050565b6000819050602082019050919050565b600081519050919050565b6000602082019050919050565b600082825260208201905092915050565b600082825260208201905092915050565b600062000b5e8262000b65565b9050919050565b600073ffffffffffffffffffffffffffffffffffffffff82169050919050565b60005b8381101562000ba557808201518184015260208101905062000b88565b8381111562000bb5576000848401525b50505050565b6000600282049050600182168062000bd457607f821691505b6020821081141562000beb5762000bea62000bf1565b5b50919050565b7f4e487b7100000000000000000000000000000000000000000000000000000000600052602260045260246000fd5b7f4e487b7100000000000000000000000000000000000000000000000000000000600052604160045260246000fd5b62000c5a8162000b51565b811462000c6657600080fd5b50565b6172dd8062000c796000396000f3fe608060405234801561001057600080fd5b50600436106104275760003560e01c80637837ad441161022b578063b7d4ddf411610130578063cea91c33116100b8578063dd9479ce11610087578063dd9479ce14610cd6578063dfcf671b14610cf2578063e6ec5e7614610d0e578063e985e9c514610d2c578063f242432a14610d5c57610427565b8063cea91c3314610c62578063d321f74114610c80578063d547741f14610c9e578063d8baf7cf14610cba57610427565b8063bd85b039116100ff578063bd85b03914610bae578063c230fb6c14610bde578063ca15c87314610bfa578063cc8c538914610c2a578063ccd8081f14610c4657610427565b8063b7d4ddf414610b3c578063b9e6003d14610b5a578063bae7b25c14610b76578063bc9805a314610b9257610427565b8063956941eb116101b3578063a55d826911610182578063a55d826914610a98578063a5b8c5bb14610ab4578063a6969f7314610ad0578063b00a768914610aee578063b722938a14610b0c57610427565b8063956941eb14610a2457806395d89b4114610a40578063a217fddf14610a5e578063a22cb46514610a7c57610427565b80638fa3d517116101fa5780638fa3d517146109705780639010d07c1461098c57806391d14854146109bc57806392c1e76b146109ec57806394d008ef14610a0857610427565b80637837ad44146108e95780637972d0a4146109075780638314a4b1146109235780638b4864d61461093f57610427565b806339bf5e03116103315780635f8a5afa116102b95780636b453c1f116102885780636b453c1f146108575780636bbc2b34146108735780636d4c7759146108915780636efb55e5146108af578063751890d5146108cb57610427565b80635f8a5afa146107e557806367001e33146108015780636a0028881461081d5780636a75323f1461083b57610427565b806349ec99ee1161030057806349ec99ee146107195780634b7c775d146107375780634e1273f4146107555780634f558e79146107855780634f6ccce7146107b557610427565b806339bf5e03146106a75780633ad69ece146106c357806340aacfd2146106e15780634184b9c3146106fd57610427565b806323185dc9116103b45780632eb2c2d6116103835780632eb2c2d6146106075780632f2ff15d146106235780632f745c591461063f57806332a2390d1461066f57806336568abe1461068b57610427565b806323185dc91461056c578063248a9ca31461059d57806324c18ac4146105cd5780632aabb726146105e957610427565b80630e89341c116103fb5780630e89341c146104c6578063117803e3146104f657806314b42c771461051457806318160ddd146105325780631b5ea45a1461055057610427565b8062fdd58e1461042c57806301ffc9a71461045c57806302fe53051461048c57806306fdde03146104a8575b600080fd5b6104466004803603810190610441919061591e565b610d78565b6040516104539190616bb8565b60405180910390f35b61047660048036038101906104719190615b1d565b610e42565b6040516104839190616885565b60405180910390f35b6104a660048036038101906104a19190615b6f565b610e64565b005b6104b0610ee0565b6040516104bd91906168d6565b60405180910390f35b6104e060048036038101906104db9190615bb0565b610f72565b6040516104ed91906168d6565b60405180910390f35b6104fe610fad565b60405161050b91906168a0565b60405180910390f35b61051c610fd1565b60405161052991906168bb565b60405180910390f35b61053a610fe4565b6040516105479190616bb8565b60405180910390f35b61056a6004803603810190610565919061572f565b610ff5565b005b610586600480360381019061058191906159c1565b6110be565b604051610594929190616bd3565b60405180910390f35b6105b760048036038101906105b29190615a7c565b61127f565b6040516105c491906168a0565b60405180910390f35b6105e760048036038101906105e29190615bb0565b61129e565b005b6105f161139f565b6040516105fe91906168a0565b60405180910390f35b610621600480360381019061061c9190615794565b6113c3565b005b61063d60048036038101906106389190615aa5565b611464565b005b6106596004803603810190610654919061591e565b61148d565b6040516106669190616bb8565b60405180910390f35b6106896004803603810190610684919061572f565b6114e8565b005b6106a560048036038101906106a09190615aa5565b6115b1565b005b6106c160048036038101906106bc919061572f565b611634565b005b6106cb6116fd565b6040516106d891906168d6565b60405180910390f35b6106fb60048036038101906106f69190615b6f565b61178b565b005b6107176004803603810190610712919061572f565b611840565b005b610721611909565b60405161072e91906168a0565b60405180910390f35b61073f61192d565b60405161074c91906168a0565b60405180910390f35b61076f600480360381019061076a9190615a10565b611951565b60405161077c919061682c565b60405180910390f35b61079f600480360381019061079a9190615bb0565b611b02565b6040516107ac9190616885565b60405180910390f35b6107cf60048036038101906107ca9190615bb0565b611b21565b6040516107dc9190616bb8565b60405180910390f35b6107ff60048036038101906107fa919061572f565b611b3e565b005b61081b6004803603810190610816919061572f565b611c07565b005b610825611cd0565b60405161083291906168a0565b60405180910390f35b6108556004803603810190610850919061572f565b611cf4565b005b610871600480360381019061086c919061572f565b611dbd565b005b61087b611e86565b60405161088891906168d6565b60405180910390f35b610899611f14565b6040516108a691906168a0565b60405180910390f35b6108c960048036038101906108c4919061572f565b611f38565b005b6108d3612001565b6040516108e091906168a0565b60405180910390f35b6108f1612025565b6040516108fe91906168a0565b60405180910390f35b610921600480360381019061091c919061572f565b612049565b005b61093d6004803603810190610938919061572f565b612112565b005b61095960048036038101906109549190615bd9565b6121db565b604051610967929190616bd3565b60405180910390f35b61098a6004803603810190610985919061572f565b612399565b005b6109a660048036038101906109a19190615ae1565b612462565b6040516109b3919061674f565b60405180910390f35b6109d660048036038101906109d19190615aa5565b612491565b6040516109e39190616885565b60405180910390f35b610a066004803603810190610a01919061572f565b6124fb565b005b610a226004803603810190610a1d919061595a565b6125c4565b005b610a3e6004803603810190610a39919061572f565b612690565b005b610a48612759565b604051610a5591906168d6565b60405180910390f35b610a666127eb565b604051610a7391906168a0565b60405180910390f35b610a966004803603810190610a9191906158e2565b6127f2565b005b610ab26004803603810190610aad919061572f565b612808565b005b610ace6004803603810190610ac9919061572f565b6128d1565b005b610ad861299a565b604051610ae591906168a0565b60405180910390f35b610af66129be565b604051610b0391906168d6565b60405180910390f35b610b266004803603810190610b21919061572f565b612a4c565b604051610b339190616bb8565b60405180910390f35b610b44612a9c565b604051610b5191906168a0565b60405180910390f35b610b746004803603810190610b6f919061572f565b612ac0565b005b610b906004803603810190610b8b9190615b6f565b612b89565b005b610bac6004803603810190610ba7919061572f565b612c3f565b005b610bc86004803603810190610bc39190615bb0565b612d08565b604051610bd59190616bb8565b60405180910390f35b610bf86004803603810190610bf3919061572f565b612d25565b005b610c146004803603810190610c0f9190615a7c565b612dee565b604051610c219190616bb8565b60405180910390f35b610c446004803603810190610c3f919061572f565b612e12565b005b610c606004803603810190610c5b9190615b6f565b612edb565b005b610c6a612f91565b604051610c7791906168a0565b60405180910390f35b610c88612fb5565b604051610c9591906168a0565b60405180910390f35b610cb86004803603810190610cb39190615aa5565b612fd9565b005b610cd46004803603810190610ccf919061572f565b613002565b005b610cf06004803603810190610ceb919061572f565b6130cb565b005b610d0c6004803603810190610d079190615b6f565b613194565b005b610d1661324a565b604051610d2391906168d6565b60405180910390f35b610d466004803603810190610d419190615758565b6132d8565b604051610d539190616885565b60405180910390f35b610d766004803603810190610d719190615853565b61336c565b005b60008073ffffffffffffffffffffffffffffffffffffffff168373ffffffffffffffffffffffffffffffffffffffff161415610de9576040517f08c379a0000000000000000000000000000000000000000000000000000000008152600401610de090616958565b60405180910390fd5b6002600083815260200190815260200160002060008473ffffffffffffffffffffffffffffffffffffffff1673ffffffffffffffffffffffffffffffffffffffff16815260200190815260200160002054905092915050565b6000610e4d82613530565b80610e5d5750610e5c826135aa565b5b9050919050565b610e957f6270edb7c868f86fda4adedba75108201087268ea345934db8bad688e1feb91b610e90613624565b612491565b610ed4576040517f08c379a0000000000000000000000000000000000000000000000000000000008152600401610ecb90616b78565b60405180910390fd5b610edd8161362c565b50565b606060098054610eef90616fb5565b80601f0160208091040260200160405190810160405280929190818152602001828054610f1b90616fb5565b8015610f685780601f10610f3d57610100808354040283529160200191610f68565b820191906000526020600020905b815481529060010190602001808311610f4b57829003601f168201915b5050505050905090565b6060610f7d82613646565b610f86836136da565b604051602001610f979291906166e6565b6040516020818303038152906040529050919050565b7f6270edb7c868f86fda4adedba75108201087268ea345934db8bad688e1feb91b81565b600b60009054906101000a900460ff1681565b6000610ff06005613887565b905090565b6110267f6270edb7c868f86fda4adedba75108201087268ea345934db8bad688e1feb91b611021613624565b612491565b611065576040517f08c379a000000000000000000000000000000000000000000000000000000000815260040161105c906169d8565b60405180910390fd5b61108f7f90b2805f180e032c7264ccc730b08b69796f06e8c50ab1ad71a632183810bac982611464565b7fa86527fe5344683557663eba725f0d6c2e851c773791dff1d0ec81b0ca14940b60405160405180910390a150565b600060606110cb85612a4c565b915060008214806110dc5750818410155b1561115b5781600067ffffffffffffffff811115611123577f4e487b7100000000000000000000000000000000000000000000000000000000600052604160045260246000fd5b6040519080825280602002602001820160405280156111515781602001602082028036833780820191505090505b5091509150611277565b600061117b848661116c9190616d91565b8461389c90919063ffffffff16565b905084816111899190616e72565b67ffffffffffffffff8111156111c8577f4e487b7100000000000000000000000000000000000000000000000000000000600052604160045260246000fd5b6040519080825280602002602001820160405280156111f65781602001602082028036833780820191505090505b50915060008590505b8181101561127457611211878261148d565b83878361121e9190616e72565b81518110611255577f4e487b7100000000000000000000000000000000000000000000000000000000600052603260045260246000fd5b602002602001018181525050808061126c90616fe7565b9150506111ff565b50505b935093915050565b6000806000838152602001908152602001600020600101549050919050565b6112cf7f6270edb7c868f86fda4adedba75108201087268ea345934db8bad688e1feb91b6112ca613624565b612491565b61130e576040517f08c379a0000000000000000000000000000000000000000000000000000000008152600401611305906169b8565b60405180910390fd5b600181148061131d5750600281145b806113285750600381145b611367576040517f08c379a000000000000000000000000000000000000000000000000000000000815260040161135e90616b58565b60405180910390fd5b611370816138b5565b7fd28cfee9576e95c59913a2d88a0023640dc2036e658277777176d2270a597d1c60405160405180910390a150565b7fd88b35d7427a01a8e16d8a129535b4cf3150edf8d92c0a44dc1eba73bdaf18cb81565b6113cb613624565b73ffffffffffffffffffffffffffffffffffffffff168573ffffffffffffffffffffffffffffffffffffffff16148061141157506114108561140b613624565b6132d8565b5b611450576040517f08c379a000000000000000000000000000000000000000000000000000000000815260040161144790616a18565b60405180910390fd5b61145d85858585856139c9565b5050505050565b61146d8261127f565b61147e81611479613624565b613d2c565b6114888383613dc9565b505050565b60006114e082600860008673ffffffffffffffffffffffffffffffffffffffff1673ffffffffffffffffffffffffffffffffffffffff168152602001908152602001600020613dfd90919063ffffffff16565b905092915050565b6115197f90b2805f180e032c7264ccc730b08b69796f06e8c50ab1ad71a632183810bac9611514613624565b612491565b611558576040517f08c379a000000000000000000000000000000000000000000000000000000000815260040161154f906169d8565b60405180910390fd5b6115827ff0cb30c52f60fdcd43db82dde2df2dfb370f61c9f9a3d4ce0671e5aea4480d7782611464565b7fa86527fe5344683557663eba725f0d6c2e851c773791dff1d0ec81b0ca14940b60405160405180910390a150565b6115b9613624565b73ffffffffffffffffffffffffffffffffffffffff168173ffffffffffffffffffffffffffffffffffffffff1614611626576040517f08c379a000000000000000000000000000000000000000000000000000000000815260040161161d90616b98565b60405180910390fd5b6116308282613e17565b5050565b6116657f6270edb7c868f86fda4adedba75108201087268ea345934db8bad688e1feb91b611660613624565b612491565b6116a4576040517f08c379a000000000000000000000000000000000000000000000000000000000815260040161169b906169d8565b60405180910390fd5b6116ce7f218376bc990a9ad6981f230b943c686c708c7ea4f00ed4951ac2b82d7f20c17782611464565b7fa86527fe5344683557663eba725f0d6c2e851c773791dff1d0ec81b0ca14940b60405160405180910390a150565b600e805461170a90616fb5565b80601f016020809104026020016040519081016040528092919081815260200182805461173690616fb5565b80156117835780601f1061175857610100808354040283529160200191611783565b820191906000526020600020905b81548152906001019060200180831161176657829003601f168201915b505050505081565b6117bc7f6659d833875b88922d2576dad6c137a09ba676496bb2010bf8a72397792167a06117b7613624565b612491565b6117fb576040517f08c379a00000000000000000000000000000000000000000000000000000000081526004016117f290616a98565b60405180910390fd5b80600e9080519060200190611811929190615412565b507ede2595e55d287aba10166f63979d10dcdff2424564de48a833522bf4aa35ab60405160405180910390a150565b6118717f6659d833875b88922d2576dad6c137a09ba676496bb2010bf8a72397792167a061186c613624565b612491565b6118b0576040517f08c379a00000000000000000000000000000000000000000000000000000000081526004016118a7906169d8565b60405180910390fd5b6118da7fc27bd045373162155417c0fc5431f06bae6f44bb384e58844f13b1963659e89882611464565b7fa86527fe5344683557663eba725f0d6c2e851c773791dff1d0ec81b0ca14940b60405160405180910390a150565b7f6659d833875b88922d2576dad6c137a09ba676496bb2010bf8a72397792167a081565b7fed9a180fc7f150727f3614f70f00ff77e8e514eb7a73979e612e1539666ab91081565b60608151835114611997576040517f08c379a000000000000000000000000000000000000000000000000000000000815260040161198e90616ad8565b60405180910390fd5b6000835167ffffffffffffffff8111156119da577f4e487b7100000000000000000000000000000000000000000000000000000000600052604160045260246000fd5b604051908082528060200260200182016040528015611a085781602001602082028036833780820191505090505b50905060005b8451811015611af757611aa1858281518110611a53577f4e487b7100000000000000000000000000000000000000000000000000000000600052603260045260246000fd5b6020026020010151858381518110611a94577f4e487b7100000000000000000000000000000000000000000000000000000000600052603260045260246000fd5b6020026020010151610d78565b828281518110611ada577f4e487b7100000000000000000000000000000000000000000000000000000000600052603260045260246000fd5b60200260200101818152505080611af090616fe7565b9050611a0e565b508091505092915050565b6000806007600084815260200190815260200160002054119050919050565b6000611b37826005613dfd90919063ffffffff16565b9050919050565b611b6f7f6270edb7c868f86fda4adedba75108201087268ea345934db8bad688e1feb91b611b6a613624565b612491565b611bae576040517f08c379a0000000000000000000000000000000000000000000000000000000008152600401611ba5906169d8565b60405180910390fd5b611bd87f6659d833875b88922d2576dad6c137a09ba676496bb2010bf8a72397792167a082611464565b7fa86527fe5344683557663eba725f0d6c2e851c773791dff1d0ec81b0ca14940b60405160405180910390a150565b611c387f6270edb7c868f86fda4adedba75108201087268ea345934db8bad688e1feb91b611c33613624565b612491565b611c77576040517f08c379a0000000000000000000000000000000000000000000000000000000008152600401611c6e906169d8565b60405180910390fd5b611ca17fed9a180fc7f150727f3614f70f00ff77e8e514eb7a73979e612e1539666ab91082611464565b7fa86527fe5344683557663eba725f0d6c2e851c773791dff1d0ec81b0ca14940b60405160405180910390a150565b7ff4587ed951abf4d6600554f7b3255f7b09ba0752fa2466a8efb26f5a3358f3c681565b611d257f6270edb7c868f86fda4adedba75108201087268ea345934db8bad688e1feb91b611d20613624565b612491565b611d64576040517f08c379a0000000000000000000000000000000000000000000000000000000008152600401611d5b906169d8565b60405180910390fd5b611d8e7f6659d833875b88922d2576dad6c137a09ba676496bb2010bf8a72397792167a082612fd9565b7fa86527fe5344683557663eba725f0d6c2e851c773791dff1d0ec81b0ca14940b60405160405180910390a150565b611dee7f6270edb7c868f86fda4adedba75108201087268ea345934db8bad688e1feb91b611de9613624565b612491565b611e2d576040517f08c379a0000000000000000000000000000000000000000000000000000000008152600401611e24906169d8565b60405180910390fd5b611e577fd88b35d7427a01a8e16d8a129535b4cf3150edf8d92c0a44dc1eba73bdaf18cb82611464565b7fa86527fe5344683557663eba725f0d6c2e851c773791dff1d0ec81b0ca14940b60405160405180910390a150565b60108054611e9390616fb5565b80601f0160208091040260200160405190810160405280929190818152602001828054611ebf90616fb5565b8015611f0c5780601f10611ee157610100808354040283529160200191611f0c565b820191906000526020600020905b815481529060010190602001808311611eef57829003601f168201915b505050505081565b7f6d524b696a421e086f90aea7823dd80d7b5ba70c938bf6de85cf2f5885050d8581565b611f697f218376bc990a9ad6981f230b943c686c708c7ea4f00ed4951ac2b82d7f20c177611f64613624565b612491565b611fa8576040517f08c379a0000000000000000000000000000000000000000000000000000000008152600401611f9f906169d8565b60405180910390fd5b611fd27ff4587ed951abf4d6600554f7b3255f7b09ba0752fa2466a8efb26f5a3358f3c682611464565b7fa86527fe5344683557663eba725f0d6c2e851c773791dff1d0ec81b0ca14940b60405160405180910390a150565b7ffb072e383fae0672d9813f03bc6940f62d3503a25931d8345f29b237d5c42ceb81565b7f218376bc990a9ad6981f230b943c686c708c7ea4f00ed4951ac2b82d7f20c17781565b61207a7f90b2805f180e032c7264ccc730b08b69796f06e8c50ab1ad71a632183810bac9612075613624565b612491565b6120b9576040517f08c379a00000000000000000000000000000000000000000000000000000000081526004016120b0906169d8565b60405180910390fd5b6120e37f6d524b696a421e086f90aea7823dd80d7b5ba70c938bf6de85cf2f5885050d8582611464565b7fa86527fe5344683557663eba725f0d6c2e851c773791dff1d0ec81b0ca14940b60405160405180910390a150565b6121437f218376bc990a9ad6981f230b943c686c708c7ea4f00ed4951ac2b82d7f20c17761213e613624565b612491565b612182576040517f08c379a0000000000000000000000000000000000000000000000000000000008152600401612179906169d8565b60405180910390fd5b6121ac7ffb072e383fae0672d9813f03bc6940f62d3503a25931d8345f29b237d5c42ceb82612fd9565b7fa86527fe5344683557663eba725f0d6c2e851c773791dff1d0ec81b0ca14940b60405160405180910390a150565b600060606121e7610fe4565b915060008214806121f85750818410155b156122775781600067ffffffffffffffff81111561223f577f4e487b7100000000000000000000000000000000000000000000000000000000600052604160045260246000fd5b60405190808252806020026020018201604052801561226d5781602001602082028036833780820191505090505b5091509150612392565b600061229784866122889190616d91565b8461389c90919063ffffffff16565b905084816122a59190616e72565b67ffffffffffffffff8111156122e4577f4e487b7100000000000000000000000000000000000000000000000000000000600052604160045260246000fd5b6040519080825280602002602001820160405280156123125781602001602082028036833780820191505090505b50915060008590505b8181101561238f5761232c81611b21565b8387836123399190616e72565b81518110612370577f4e487b7100000000000000000000000000000000000000000000000000000000600052603260045260246000fd5b602002602001018181525050808061238790616fe7565b91505061231b565b50505b9250929050565b6123ca7f6270edb7c868f86fda4adedba75108201087268ea345934db8bad688e1feb91b6123c5613624565b612491565b612409576040517f08c379a0000000000000000000000000000000000000000000000000000000008152600401612400906169d8565b60405180910390fd5b6124337fed9a180fc7f150727f3614f70f00ff77e8e514eb7a73979e612e1539666ab91082612fd9565b7fa86527fe5344683557663eba725f0d6c2e851c773791dff1d0ec81b0ca14940b60405160405180910390a150565b60006124898260016000868152602001908152602001600020613e4b90919063ffffffff16565b905092915050565b600080600084815260200190815260200160002060000160008373ffffffffffffffffffffffffffffffffffffffff1673ffffffffffffffffffffffffffffffffffffffff16815260200190815260200160002060009054906101000a900460ff16905092915050565b61252c7f6659d833875b88922d2576dad6c137a09ba676496bb2010bf8a72397792167a0612527613624565b612491565b61256b576040517f08c379a0000000000000000000000000000000000000000000000000000000008152600401612562906169d8565b60405180910390fd5b6125957f8e5c785f66a59a5db857c91c0a1ba79f01efc6e54cfbd44b4673664f9e7d014c82612fd9565b7fa86527fe5344683557663eba725f0d6c2e851c773791dff1d0ec81b0ca14940b60405160405180910390a150565b6125f57fed9a180fc7f150727f3614f70f00ff77e8e514eb7a73979e612e1539666ab9106125f0613624565b612491565b612634576040517f08c379a000000000000000000000000000000000000000000000000000000000815260040161262b90616a58565b60405180910390fd5b612655836001612644600c613e65565b61264e9190616d91565b8484613e73565b61265f600c61400a565b7f6d36439245ebb0f8a0c3d9c8a7169e680968f011c1ff921f5971043ad856ef0360405160405180910390a1505050565b6126c17f6659d833875b88922d2576dad6c137a09ba676496bb2010bf8a72397792167a06126bc613624565b612491565b612700576040517f08c379a00000000000000000000000000000000000000000000000000000000081526004016126f7906169d8565b60405180910390fd5b61272a7f8e5c785f66a59a5db857c91c0a1ba79f01efc6e54cfbd44b4673664f9e7d014c82611464565b7fa86527fe5344683557663eba725f0d6c2e851c773791dff1d0ec81b0ca14940b60405160405180910390a150565b6060600a805461276890616fb5565b80601f016020809104026020016040519081016040528092919081815260200182805461279490616fb5565b80156127e15780601f106127b6576101008083540402835291602001916127e1565b820191906000526020600020905b8154815290600101906020018083116127c457829003601f168201915b5050505050905090565b6000801b81565b6128046127fd613624565b8383614020565b5050565b6128397f6270edb7c868f86fda4adedba75108201087268ea345934db8bad688e1feb91b612834613624565b612491565b612878576040517f08c379a000000000000000000000000000000000000000000000000000000000815260040161286f906169d8565b60405180910390fd5b6128a27f90b2805f180e032c7264ccc730b08b69796f06e8c50ab1ad71a632183810bac982612fd9565b7fa86527fe5344683557663eba725f0d6c2e851c773791dff1d0ec81b0ca14940b60405160405180910390a150565b6129027f90b2805f180e032c7264ccc730b08b69796f06e8c50ab1ad71a632183810bac96128fd613624565b612491565b612941576040517f08c379a0000000000000000000000000000000000000000000000000000000008152600401612938906169d8565b60405180910390fd5b61296b7f6d524b696a421e086f90aea7823dd80d7b5ba70c938bf6de85cf2f5885050d8582612fd9565b7fa86527fe5344683557663eba725f0d6c2e851c773791dff1d0ec81b0ca14940b60405160405180910390a150565b7f90b2805f180e032c7264ccc730b08b69796f06e8c50ab1ad71a632183810bac981565b600d80546129cb90616fb5565b80601f01602080910402602001604051908101604052809291908181526020018280546129f790616fb5565b8015612a445780601f10612a1957610100808354040283529160200191612a44565b820191906000526020600020905b815481529060010190602001808311612a2757829003601f168201915b505050505081565b6000612a95600860008473ffffffffffffffffffffffffffffffffffffffff1673ffffffffffffffffffffffffffffffffffffffff168152602001908152602001600020613887565b9050919050565b7f8e5c785f66a59a5db857c91c0a1ba79f01efc6e54cfbd44b4673664f9e7d014c81565b612af17f6270edb7c868f86fda4adedba75108201087268ea345934db8bad688e1feb91b612aec613624565b612491565b612b30576040517f08c379a0000000000000000000000000000000000000000000000000000000008152600401612b27906169d8565b60405180910390fd5b612b5a7f218376bc990a9ad6981f230b943c686c708c7ea4f00ed4951ac2b82d7f20c17782612fd9565b7fa86527fe5344683557663eba725f0d6c2e851c773791dff1d0ec81b0ca14940b60405160405180910390a150565b612bba7f90b2805f180e032c7264ccc730b08b69796f06e8c50ab1ad71a632183810bac9612bb5613624565b612491565b612bf9576040517f08c379a0000000000000000000000000000000000000000000000000000000008152600401612bf090616a78565b60405180910390fd5b80600d9080519060200190612c0f929190615412565b507f493a7127510202c1b88b55e1aeacc639e5e62d8b2d9d0012655036ca82526b5060405160405180910390a150565b612c707f218376bc990a9ad6981f230b943c686c708c7ea4f00ed4951ac2b82d7f20c177612c6b613624565b612491565b612caf576040517f08c379a0000000000000000000000000000000000000000000000000000000008152600401612ca6906169d8565b60405180910390fd5b612cd97ffb072e383fae0672d9813f03bc6940f62d3503a25931d8345f29b237d5c42ceb82611464565b7fa86527fe5344683557663eba725f0d6c2e851c773791dff1d0ec81b0ca14940b60405160405180910390a150565b600060076000838152602001908152602001600020549050919050565b612d567f90b2805f180e032c7264ccc730b08b69796f06e8c50ab1ad71a632183810bac9612d51613624565b612491565b612d95576040517f08c379a0000000000000000000000000000000000000000000000000000000008152600401612d8c906169d8565b60405180910390fd5b612dbf7ff0cb30c52f60fdcd43db82dde2df2dfb370f61c9f9a3d4ce0671e5aea4480d7782612fd9565b7fa86527fe5344683557663eba725f0d6c2e851c773791dff1d0ec81b0ca14940b60405160405180910390a150565b6000612e0b6001600084815260200190815260200160002061418d565b9050919050565b612e437f6659d833875b88922d2576dad6c137a09ba676496bb2010bf8a72397792167a0612e3e613624565b612491565b612e82576040517f08c379a0000000000000000000000000000000000000000000000000000000008152600401612e79906169d8565b60405180910390fd5b612eac7fc27bd045373162155417c0fc5431f06bae6f44bb384e58844f13b1963659e89882612fd9565b7fa86527fe5344683557663eba725f0d6c2e851c773791dff1d0ec81b0ca14940b60405160405180910390a150565b612f0c7fd88b35d7427a01a8e16d8a129535b4cf3150edf8d92c0a44dc1eba73bdaf18cb612f07613624565b612491565b612f4b576040517f08c379a0000000000000000000000000000000000000000000000000000000008152600401612f4290616998565b60405180910390fd5b8060109080519060200190612f61929190615412565b507f4338281d683dee1411220d9fea172202b40d077e3b7c1bd504b083157791b9d360405160405180910390a150565b7fc27bd045373162155417c0fc5431f06bae6f44bb384e58844f13b1963659e89881565b7ff0cb30c52f60fdcd43db82dde2df2dfb370f61c9f9a3d4ce0671e5aea4480d7781565b612fe28261127f565b612ff381612fee613624565b613d2c565b612ffd8383613e17565b505050565b6130337f6270edb7c868f86fda4adedba75108201087268ea345934db8bad688e1feb91b61302e613624565b612491565b613072576040517f08c379a0000000000000000000000000000000000000000000000000000000008152600401613069906169d8565b60405180910390fd5b61309c7fd88b35d7427a01a8e16d8a129535b4cf3150edf8d92c0a44dc1eba73bdaf18cb82612fd9565b7fa86527fe5344683557663eba725f0d6c2e851c773791dff1d0ec81b0ca14940b60405160405180910390a150565b6130fc7f218376bc990a9ad6981f230b943c686c708c7ea4f00ed4951ac2b82d7f20c1776130f7613624565b612491565b61313b576040517f08c379a0000000000000000000000000000000000000000000000000000000008152600401613132906169d8565b60405180910390fd5b6131657ff4587ed951abf4d6600554f7b3255f7b09ba0752fa2466a8efb26f5a3358f3c682612fd9565b7fa86527fe5344683557663eba725f0d6c2e851c773791dff1d0ec81b0ca14940b60405160405180910390a150565b6131c57f218376bc990a9ad6981f230b943c686c708c7ea4f00ed4951ac2b82d7f20c1776131c0613624565b612491565b613204576040517f08c379a00000000000000000000000000000000000000000000000000000000081526004016131fb90616b18565b60405180910390fd5b80600f908051906020019061321a929190615412565b507f8031709eb1257d5927cf09b7af27afe482343e31e3a5d7e6ac7633ffa445fef460405160405180910390a150565b600f805461325790616fb5565b80601f016020809104026020016040519081016040528092919081815260200182805461328390616fb5565b80156132d05780601f106132a5576101008083540402835291602001916132d0565b820191906000526020600020905b8154815290600101906020018083116132b357829003601f168201915b505050505081565b6000600360008473ffffffffffffffffffffffffffffffffffffffff1673ffffffffffffffffffffffffffffffffffffffff16815260200190815260200160002060008373ffffffffffffffffffffffffffffffffffffffff1673ffffffffffffffffffffffffffffffffffffffff16815260200190815260200160002060009054906101000a900460ff16905092915050565b613374613624565b73ffffffffffffffffffffffffffffffffffffffff168573ffffffffffffffffffffffffffffffffffffffff1614806133ba57506133b9856133b4613624565b6132d8565b5b6133f9576040517f08c379a00000000000000000000000000000000000000000000000000000000081526004016133f090616978565b60405180910390fd5b61340685858585856141a2565b5050505050565b600080823b905060008111915050919050565b61342a8282612491565b6134fc57600160008084815260200190815260200160002060000160008373ffffffffffffffffffffffffffffffffffffffff1673ffffffffffffffffffffffffffffffffffffffff16815260200190815260200160002060006101000a81548160ff0219169083151502179055506134a1613624565b73ffffffffffffffffffffffffffffffffffffffff168173ffffffffffffffffffffffffffffffffffffffff16837f2f8788117e7eff1d82e926ec794901d17c78024a50270940304540a733656f0d60405160405180910390a45b5050565b6000613528836000018373ffffffffffffffffffffffffffffffffffffffff1660001b614427565b905092915050565b60007f5a05180f000000000000000000000000000000000000000000000000000000007bffffffffffffffffffffffffffffffffffffffffffffffffffffffff1916827bffffffffffffffffffffffffffffffffffffffffffffffffffffffff191614806135a357506135a282614497565b5b9050919050565b60007f3dfc30a9000000000000000000000000000000000000000000000000000000007bffffffffffffffffffffffffffffffffffffffffffffffffffffffff1916827bffffffffffffffffffffffffffffffffffffffffffffffffffffffff1916148061361d575061361c82614511565b5b9050919050565b600033905090565b8060049080519060200190613642929190615412565b5050565b60606004805461365590616fb5565b80601f016020809104026020016040519081016040528092919081815260200182805461368190616fb5565b80156136ce5780601f106136a3576101008083540402835291602001916136ce565b820191906000526020600020905b8154815290600101906020018083116136b157829003601f168201915b50505050509050919050565b60606000821415613722576040518060400160405280600181526020017f30000000000000000000000000000000000000000000000000000000000000008152509050613882565b600082905060005b6000821461375457808061373d90616fe7565b915050600a8261374d9190616de7565b915061372a565b60008167ffffffffffffffff811115613796577f4e487b7100000000000000000000000000000000000000000000000000000000600052604160045260246000fd5b6040519080825280601f01601f1916602001820160405280156137c85781602001600182028036833780820191505090505b5090505b6000851461387b576001826137e19190616e72565b9150600a856137f09190617030565b60306137fc9190616d91565b60f81b818381518110613838577f4e487b7100000000000000000000000000000000000000000000000000000000600052603260045260246000fd5b60200101907effffffffffffffffffffffffffffffffffffffffffffffffffffffffffffff1916908160001a905350600a856138749190616de7565b94506137cc565b8093505050505b919050565b6000613895826000016145f3565b9050919050565b60008183106138ab57816138ad565b825b905092915050565b6001811415613914576000600b60006101000a81548160ff0219169083600281111561390a577f4e487b7100000000000000000000000000000000000000000000000000000000600052602160045260246000fd5b02179055506139c6565b6002811415613973576001600b60006101000a81548160ff02191690836002811115613969577f4e487b7100000000000000000000000000000000000000000000000000000000600052602160045260246000fd5b02179055506139c5565b6002600b60006101000a81548160ff021916908360028111156139bf577f4e487b7100000000000000000000000000000000000000000000000000000000600052602160045260246000fd5b02179055505b5b50565b8151835114613a0d576040517f08c379a0000000000000000000000000000000000000000000000000000000008152600401613a0490616af8565b60405180910390fd5b600073ffffffffffffffffffffffffffffffffffffffff168473ffffffffffffffffffffffffffffffffffffffff161415613a7d576040517f08c379a0000000000000000000000000000000000000000000000000000000008152600401613a74906169f8565b60405180910390fd5b6000613a87613624565b9050613a97818787878787614604565b60005b8451811015613c97576000858281518110613ade577f4e487b7100000000000000000000000000000000000000000000000000000000600052603260045260246000fd5b602002602001015190506000858381518110613b23577f4e487b7100000000000000000000000000000000000000000000000000000000600052603260045260246000fd5b6020026020010151905060006002600084815260200190815260200160002060008b73ffffffffffffffffffffffffffffffffffffffff1673ffffffffffffffffffffffffffffffffffffffff16815260200190815260200160002054905081811015613bc5576040517f08c379a0000000000000000000000000000000000000000000000000000000008152600401613bbc90616a38565b60405180910390fd5b8181036002600085815260200190815260200160002060008c73ffffffffffffffffffffffffffffffffffffffff1673ffffffffffffffffffffffffffffffffffffffff16815260200190815260200160002081905550816002600085815260200190815260200160002060008b73ffffffffffffffffffffffffffffffffffffffff1673ffffffffffffffffffffffffffffffffffffffff1681526020019081526020016000206000828254613c7c9190616d91565b9250508190555050505080613c9090616fe7565b9050613a9a565b508473ffffffffffffffffffffffffffffffffffffffff168673ffffffffffffffffffffffffffffffffffffffff168273ffffffffffffffffffffffffffffffffffffffff167f4a39dc06d4c0dbc64b70af90fd698a233a518aa5d07e595d983b8c0526c8f7fb8787604051613d0e92919061684e565b60405180910390a4613d24818787878787614901565b505050505050565b613d368282612491565b613dc557613d5b8173ffffffffffffffffffffffffffffffffffffffff166014614ad1565b613d698360001c6020614ad1565b604051602001613d7a929190616715565b6040516020818303038152906040526040517f08c379a0000000000000000000000000000000000000000000000000000000008152600401613dbc91906168d6565b60405180910390fd5b5050565b613dd38282613420565b613df8816001600085815260200190815260200160002061350090919063ffffffff16565b505050565b6000613e0c8360000183614dcb565b60001c905092915050565b613e218282614e1c565b613e468160016000858152602001908152602001600020614efd90919063ffffffff16565b505050565b6000613e5a8360000183614dcb565b60001c905092915050565b600081600001549050919050565b600073ffffffffffffffffffffffffffffffffffffffff168473ffffffffffffffffffffffffffffffffffffffff161415613ee3576040517f08c379a0000000000000000000000000000000000000000000000000000000008152600401613eda90616b38565b60405180910390fd5b6000613eed613624565b9050613f0e81600087613eff88614f2d565b613f0888614f2d565b87614604565b826002600086815260200190815260200160002060008773ffffffffffffffffffffffffffffffffffffffff1673ffffffffffffffffffffffffffffffffffffffff1681526020019081526020016000206000828254613f6e9190616d91565b925050819055508473ffffffffffffffffffffffffffffffffffffffff16600073ffffffffffffffffffffffffffffffffffffffff168273ffffffffffffffffffffffffffffffffffffffff167fc3d58168c5ae7397731d063d5bbf3d657854427343f4c083240f7aacaa2d0f628787604051613fec929190616c03565b60405180910390a461400381600087878787614ff3565b5050505050565b6001816000016000828254019250508190555050565b8173ffffffffffffffffffffffffffffffffffffffff168373ffffffffffffffffffffffffffffffffffffffff16141561408f576040517f08c379a000000000000000000000000000000000000000000000000000000000815260040161408690616ab8565b60405180910390fd5b80600360008573ffffffffffffffffffffffffffffffffffffffff1673ffffffffffffffffffffffffffffffffffffffff16815260200190815260200160002060008473ffffffffffffffffffffffffffffffffffffffff1673ffffffffffffffffffffffffffffffffffffffff16815260200190815260200160002060006101000a81548160ff0219169083151502179055508173ffffffffffffffffffffffffffffffffffffffff168373ffffffffffffffffffffffffffffffffffffffff167f17307eab39ab6107e8899845ad3d59bd9653f200f220920489ca2b5937696c31836040516141809190616885565b60405180910390a3505050565b600061419b826000016145f3565b9050919050565b600073ffffffffffffffffffffffffffffffffffffffff168473ffffffffffffffffffffffffffffffffffffffff161415614212576040517f08c379a0000000000000000000000000000000000000000000000000000000008152600401614209906169f8565b60405180910390fd5b600061421c613624565b905061423c81878761422d88614f2d565b61423688614f2d565b87614604565b60006002600086815260200190815260200160002060008873ffffffffffffffffffffffffffffffffffffffff1673ffffffffffffffffffffffffffffffffffffffff168152602001908152602001600020549050838110156142d4576040517f08c379a00000000000000000000000000000000000000000000000000000000081526004016142cb90616a38565b60405180910390fd5b8381036002600087815260200190815260200160002060008973ffffffffffffffffffffffffffffffffffffffff1673ffffffffffffffffffffffffffffffffffffffff16815260200190815260200160002081905550836002600087815260200190815260200160002060008873ffffffffffffffffffffffffffffffffffffffff1673ffffffffffffffffffffffffffffffffffffffff168152602001908152602001600020600082825461438b9190616d91565b925050819055508573ffffffffffffffffffffffffffffffffffffffff168773ffffffffffffffffffffffffffffffffffffffff168373ffffffffffffffffffffffffffffffffffffffff167fc3d58168c5ae7397731d063d5bbf3d657854427343f4c083240f7aacaa2d0f628888604051614408929190616c03565b60405180910390a461441e828888888888614ff3565b50505050505050565b600061443383836151c3565b61448c578260000182908060018154018082558091505060019003906000526020600020016000909190919091505582600001805490508360010160008481526020019081526020016000208190555060019050614491565b600090505b92915050565b60007f7965db0b000000000000000000000000000000000000000000000000000000007bffffffffffffffffffffffffffffffffffffffffffffffffffffffff1916827bffffffffffffffffffffffffffffffffffffffffffffffffffffffff1916148061450a5750614509826151e6565b5b9050919050565b60007fd9b67a26000000000000000000000000000000000000000000000000000000007bffffffffffffffffffffffffffffffffffffffffffffffffffffffff1916827bffffffffffffffffffffffffffffffffffffffffffffffffffffffff191614806145dc57507f0e89341c000000000000000000000000000000000000000000000000000000007bffffffffffffffffffffffffffffffffffffffffffffffffffffffff1916827bffffffffffffffffffffffffffffffffffffffffffffffffffffffff1916145b806145ec57506145eb82613530565b5b9050919050565b600081600001805490509050919050565b614612868686868686615250565b60005b83518110156148f8576000848281518110614659577f4e487b7100000000000000000000000000000000000000000000000000000000600052603260045260246000fd5b60200260200101519050600084838151811061469e577f4e487b7100000000000000000000000000000000000000000000000000000000600052603260045260246000fd5b6020026020010151905060008114806146e257508673ffffffffffffffffffffffffffffffffffffffff168873ffffffffffffffffffffffffffffffffffffffff16145b156146ee5750506148e7565b600073ffffffffffffffffffffffffffffffffffffffff168873ffffffffffffffffffffffffffffffffffffffff16141561478357600060076000848152602001908152602001600020549050600081141561475a5761475883600561525890919063ffffffff16565b505b81816147669190616d91565b6007600085815260200190815260200160002081905550506147e8565b8061478e8984610d78565b14156147e7576147e582600860008b73ffffffffffffffffffffffffffffffffffffffff1673ffffffffffffffffffffffffffffffffffffffff16815260200190815260200160002061527290919063ffffffff16565b505b5b600073ffffffffffffffffffffffffffffffffffffffff168773ffffffffffffffffffffffffffffffffffffffff16141561487e57806007600084815260200190815260200160002060008282546148409190616e72565b925050819055506000600760008481526020019081526020016000205414156148795761487782600561527290919063ffffffff16565b505b6148e4565b600061488a8884610d78565b14156148e3576148e182600860008a73ffffffffffffffffffffffffffffffffffffffff1673ffffffffffffffffffffffffffffffffffffffff16815260200190815260200160002061525890919063ffffffff16565b505b5b50505b806148f190616fe7565b9050614615565b50505050505050565b6149208473ffffffffffffffffffffffffffffffffffffffff1661340d565b15614ac9578373ffffffffffffffffffffffffffffffffffffffff1663bc197c8187878686866040518663ffffffff1660e01b815260040161496695949392919061676a565b602060405180830381600087803b15801561498057600080fd5b505af19250505080156149b157506040513d601f19601f820116820180604052508101906149ae9190615b46565b60015b614a40576149bd61716a565b806149c85750614a05565b806040517f08c379a00000000000000000000000000000000000000000000000000000000081526004016149fc91906168d6565b60405180910390fd5b6040517f08c379a0000000000000000000000000000000000000000000000000000000008152600401614a37906168f8565b60405180910390fd5b63bc197c8160e01b7bffffffffffffffffffffffffffffffffffffffffffffffffffffffff1916817bffffffffffffffffffffffffffffffffffffffffffffffffffffffff191614614ac7576040517f08c379a0000000000000000000000000000000000000000000000000000000008152600401614abe90616938565b60405180910390fd5b505b505050505050565b606060006002836002614ae49190616e18565b614aee9190616d91565b67ffffffffffffffff811115614b2d577f4e487b7100000000000000000000000000000000000000000000000000000000600052604160045260246000fd5b6040519080825280601f01601f191660200182016040528015614b5f5781602001600182028036833780820191505090505b5090507f300000000000000000000000000000000000000000000000000000000000000081600081518110614bbd577f4e487b7100000000000000000000000000000000000000000000000000000000600052603260045260246000fd5b60200101907effffffffffffffffffffffffffffffffffffffffffffffffffffffffffffff1916908160001a9053507f780000000000000000000000000000000000000000000000000000000000000081600181518110614c47577f4e487b7100000000000000000000000000000000000000000000000000000000600052603260045260246000fd5b60200101907effffffffffffffffffffffffffffffffffffffffffffffffffffffffffffff1916908160001a90535060006001846002614c879190616e18565b614c919190616d91565b90505b6001811115614d7d577f3031323334353637383961626364656600000000000000000000000000000000600f861660108110614cf9577f4e487b7100000000000000000000000000000000000000000000000000000000600052603260045260246000fd5b1a60f81b828281518110614d36577f4e487b7100000000000000000000000000000000000000000000000000000000600052603260045260246000fd5b60200101907effffffffffffffffffffffffffffffffffffffffffffffffffffffffffffff1916908160001a905350600485901c945080614d7690616f8b565b9050614c94565b5060008414614dc1576040517f08c379a0000000000000000000000000000000000000000000000000000000008152600401614db890616918565b60405180910390fd5b8091505092915050565b6000826000018281548110614e09577f4e487b7100000000000000000000000000000000000000000000000000000000600052603260045260246000fd5b9060005260206000200154905092915050565b614e268282612491565b15614ef957600080600084815260200190815260200160002060000160008373ffffffffffffffffffffffffffffffffffffffff1673ffffffffffffffffffffffffffffffffffffffff16815260200190815260200160002060006101000a81548160ff021916908315150217905550614e9e613624565b73ffffffffffffffffffffffffffffffffffffffff168173ffffffffffffffffffffffffffffffffffffffff16837ff6391f5c32d9c69d2a47ea670b442974b53935d1edc7fd64eb21e047a839171b60405160405180910390a45b5050565b6000614f25836000018373ffffffffffffffffffffffffffffffffffffffff1660001b61528c565b905092915050565b60606000600167ffffffffffffffff811115614f72577f4e487b7100000000000000000000000000000000000000000000000000000000600052604160045260246000fd5b604051908082528060200260200182016040528015614fa05781602001602082028036833780820191505090505b5090508281600081518110614fde577f4e487b7100000000000000000000000000000000000000000000000000000000600052603260045260246000fd5b60200260200101818152505080915050919050565b6150128473ffffffffffffffffffffffffffffffffffffffff1661340d565b156151bb578373ffffffffffffffffffffffffffffffffffffffff1663f23a6e6187878686866040518663ffffffff1660e01b81526004016150589594939291906167d2565b602060405180830381600087803b15801561507257600080fd5b505af19250505080156150a357506040513d601f19601f820116820180604052508101906150a09190615b46565b60015b615132576150af61716a565b806150ba57506150f7565b806040517f08c379a00000000000000000000000000000000000000000000000000000000081526004016150ee91906168d6565b60405180910390fd5b6040517f08c379a0000000000000000000000000000000000000000000000000000000008152600401615129906168f8565b60405180910390fd5b63f23a6e6160e01b7bffffffffffffffffffffffffffffffffffffffffffffffffffffffff1916817bffffffffffffffffffffffffffffffffffffffffffffffffffffffff1916146151b9576040517f08c379a00000000000000000000000000000000000000000000000000000000081526004016151b090616938565b60405180910390fd5b505b505050505050565b600080836001016000848152602001908152602001600020541415905092915050565b60007f01ffc9a7000000000000000000000000000000000000000000000000000000007bffffffffffffffffffffffffffffffffffffffffffffffffffffffff1916827bffffffffffffffffffffffffffffffffffffffffffffffffffffffff1916149050919050565b505050505050565b600061526a836000018360001b614427565b905092915050565b6000615284836000018360001b61528c565b905092915050565b600080836001016000848152602001908152602001600020549050600081146154065760006001826152be9190616e72565b90506000600186600001805490506152d69190616e72565b905081811461539157600086600001828154811061531d577f4e487b7100000000000000000000000000000000000000000000000000000000600052603260045260246000fd5b9060005260206000200154905080876000018481548110615367577f4e487b7100000000000000000000000000000000000000000000000000000000600052603260045260246000fd5b90600052602060002001819055508387600101600083815260200190815260200160002081905550505b856000018054806153cb577f4e487b7100000000000000000000000000000000000000000000000000000000600052603160045260246000fd5b60019003818190600052602060002001600090559055856001016000868152602001908152602001600020600090556001935050505061540c565b60009150505b92915050565b82805461541e90616fb5565b90600052602060002090601f0160209004810192826154405760008555615487565b82601f1061545957805160ff1916838001178555615487565b82800160010185558215615487579182015b8281111561548657825182559160200191906001019061546b565b5b5090506154949190615498565b5090565b5b808211156154b1576000816000905550600101615499565b5090565b60006154c86154c384616c5d565b616c2c565b905080838252602082019050828560208602820111156154e757600080fd5b60005b8581101561551757816154fd8882615609565b8452602084019350602083019250506001810190506154ea565b5050509392505050565b600061553461552f84616c89565b616c2c565b9050808382526020820190508285602086028201111561555357600080fd5b60005b858110156155835781615569888261571a565b845260208401935060208301925050600181019050615556565b5050509392505050565b60006155a061559b84616cb5565b616c2c565b9050828152602081018484840111156155b857600080fd5b6155c3848285616f49565b509392505050565b60006155de6155d984616ce5565b616c2c565b9050828152602081018484840111156155f657600080fd5b615601848285616f49565b509392505050565b60008135905061561881617234565b92915050565b600082601f83011261562f57600080fd5b813561563f8482602086016154b5565b91505092915050565b600082601f83011261565957600080fd5b8135615669848260208601615521565b91505092915050565b6000813590506156818161724b565b92915050565b60008135905061569681617262565b92915050565b6000813590506156ab81617279565b92915050565b6000815190506156c081617279565b92915050565b600082601f8301126156d757600080fd5b81356156e784826020860161558d565b91505092915050565b600082601f83011261570157600080fd5b81356157118482602086016155cb565b91505092915050565b60008135905061572981617290565b92915050565b60006020828403121561574157600080fd5b600061574f84828501615609565b91505092915050565b6000806040838503121561576b57600080fd5b600061577985828601615609565b925050602061578a85828601615609565b9150509250929050565b600080600080600060a086880312156157ac57600080fd5b60006157ba88828901615609565b95505060206157cb88828901615609565b945050604086013567ffffffffffffffff8111156157e857600080fd5b6157f488828901615648565b935050606086013567ffffffffffffffff81111561581157600080fd5b61581d88828901615648565b925050608086013567ffffffffffffffff81111561583a57600080fd5b615846888289016156c6565b9150509295509295909350565b600080600080600060a0868803121561586b57600080fd5b600061587988828901615609565b955050602061588a88828901615609565b945050604061589b8882890161571a565b93505060606158ac8882890161571a565b925050608086013567ffffffffffffffff8111156158c957600080fd5b6158d5888289016156c6565b9150509295509295909350565b600080604083850312156158f557600080fd5b600061590385828601615609565b925050602061591485828601615672565b9150509250929050565b6000806040838503121561593157600080fd5b600061593f85828601615609565b92505060206159508582860161571a565b9150509250929050565b60008060006060848603121561596f57600080fd5b600061597d86828701615609565b935050602061598e8682870161571a565b925050604084013567ffffffffffffffff8111156159ab57600080fd5b6159b7868287016156c6565b9150509250925092565b6000806000606084860312156159d657600080fd5b60006159e486828701615609565b93505060206159f58682870161571a565b9250506040615a068682870161571a565b9150509250925092565b60008060408385031215615a2357600080fd5b600083013567ffffffffffffffff811115615a3d57600080fd5b615a498582860161561e565b925050602083013567ffffffffffffffff811115615a6657600080fd5b615a7285828601615648565b9150509250929050565b600060208284031215615a8e57600080fd5b6000615a9c84828501615687565b91505092915050565b60008060408385031215615ab857600080fd5b6000615ac685828601615687565b9250506020615ad785828601615609565b9150509250929050565b60008060408385031215615af457600080fd5b6000615b0285828601615687565b9250506020615b138582860161571a565b9150509250929050565b600060208284031215615b2f57600080fd5b6000615b3d8482850161569c565b91505092915050565b600060208284031215615b5857600080fd5b6000615b66848285016156b1565b91505092915050565b600060208284031215615b8157600080fd5b600082013567ffffffffffffffff811115615b9b57600080fd5b615ba7848285016156f0565b91505092915050565b600060208284031215615bc257600080fd5b6000615bd08482850161571a565b91505092915050565b60008060408385031215615bec57600080fd5b6000615bfa8582860161571a565b9250506020615c0b8582860161571a565b9150509250929050565b6000615c2183836166c8565b60208301905092915050565b615c3681616ea6565b82525050565b6000615c4782616d25565b615c518185616d53565b9350615c5c83616d15565b8060005b83811015615c8d578151615c748882615c15565b9750615c7f83616d46565b925050600181019050615c60565b5085935050505092915050565b615ca381616eb8565b82525050565b615cb281616ec4565b82525050565b6000615cc382616d30565b615ccd8185616d64565b9350615cdd818560208601616f58565b615ce68161714c565b840191505092915050565b615cfa81616f37565b82525050565b6000615d0b82616d3b565b615d158185616d75565b9350615d25818560208601616f58565b615d2e8161714c565b840191505092915050565b6000615d4482616d3b565b615d4e8185616d86565b9350615d5e818560208601616f58565b80840191505092915050565b6000615d77603483616d75565b91507f455243313135353a207472616e7366657220746f206e6f6e204552433131353560008301527f526563656976657220696d706c656d656e7465720000000000000000000000006020830152604082019050919050565b6000615ddd602083616d75565b91507f537472696e67733a20686578206c656e67746820696e73756666696369656e746000830152602082019050919050565b6000615e1d602883616d75565b91507f455243313135353a204552433131353552656365697665722072656a6563746560008301527f6420746f6b656e730000000000000000000000000000000000000000000000006020830152604082019050919050565b6000615e83602b83616d75565b91507f455243313135353a2062616c616e636520717565727920666f7220746865207a60008301527f65726f20616464726573730000000000000000000000000000000000000000006020830152604082019050919050565b6000615ee9602983616d75565b91507f455243313135353a2063616c6c6572206973206e6f74206f776e6572206e6f7260008301527f20617070726f76656400000000000000000000000000000000000000000000006020830152604082019050919050565b6000615f4f603a83616d75565b91507f6164644d61696e74656e616e63654c6f67733a206d757374206861766520746860008301527f6520636f727265637420726f6c65207065726d697373696f6e730000000000006020830152604082019050919050565b6000615fb5603283616d75565b91507f5570646174656c6966653a206d75737420686176652074686520636f7272656360008301527f7420726f6c65207065726d697373696f6e7300000000000000000000000000006020830152604082019050919050565b600061601b603383616d75565b91507f61646444657369676e65723a206d75737420686176652074686520636f72726560008301527f637420726f6c65207065726d697373696f6e73000000000000000000000000006020830152604082019050919050565b6000616081602583616d75565b91507f455243313135353a207472616e7366657220746f20746865207a65726f20616460008301527f64726573730000000000000000000000000000000000000000000000000000006020830152604082019050919050565b60006160e7603283616d75565b91507f455243313135353a207472616e736665722063616c6c6572206973206e6f742060008301527f6f776e6572206e6f7220617070726f76656400000000000000000000000000006020830152604082019050919050565b600061614d602a83616d75565b91507f455243313135353a20696e73756666696369656e742062616c616e636520666f60008301527f72207472616e73666572000000000000000000000000000000000000000000006020830152604082019050919050565b60006161b3600583616d86565b91507f2e6a736f6e0000000000000000000000000000000000000000000000000000006000830152600582019050919050565b60006161f3603183616d75565b91507f44544e46546d696e743a206d75737420686176652074686520636f727265637460008301527f20726f6c65207065726d697373696f6e730000000000000000000000000000006020830152604082019050919050565b6000616259603983616d75565b91507f61646444657369676e44726177696e67733a206d75737420686176652074686560008301527f20636f727265637420726f6c65207065726d697373696f6e73000000000000006020830152604082019050919050565b60006162bf604083616d75565b91507f6164644d616e75666163747572696e6750726f67726573733a206d757374206860008301527f6176652074686520636f727265637420726f6c65207065726d697373696f6e736020830152604082019050919050565b6000616325601783616d86565b91507f416363657373436f6e74726f6c3a206163636f756e74200000000000000000006000830152601782019050919050565b6000616365602983616d75565b91507f455243313135353a2073657474696e6720617070726f76616c2073746174757360008301527f20666f722073656c6600000000000000000000000000000000000000000000006020830152604082019050919050565b60006163cb602983616d75565b91507f455243313135353a206163636f756e747320616e6420696473206c656e67746860008301527f206d69736d6174636800000000000000000000000000000000000000000000006020830152604082019050919050565b6000616431602883616d75565b91507f455243313135353a2069647320616e6420616d6f756e7473206c656e6774682060008301527f6d69736d617463680000000000000000000000000000000000000000000000006020830152604082019050919050565b6000616497603683616d75565b91507f616464536572766963654c6f67733a206d75737420686176652074686520636f60008301527f727265637420726f6c65207065726d697373696f6e73000000000000000000006020830152604082019050919050565b60006164fd602183616d75565b91507f455243313135353a206d696e7420746f20746865207a65726f2061646472657360008301527f73000000000000000000000000000000000000000000000000000000000000006020830152604082019050919050565b6000616563603783616d75565b91507f5570646174656c6966653a206d75737420686176652074686520636f7272656360008301527f742073746174652073657175656e6365206e756d6265720000000000000000006020830152604082019050919050565b60006165c9601183616d86565b91507f206973206d697373696e6720726f6c65200000000000000000000000000000006000830152601182019050919050565b6000616609603383616d75565b91507f44544e46547365745552493a206d75737420686176652074686520636f72726560008301527f637420726f6c65207065726d697373696f6e73000000000000000000000000006020830152604082019050919050565b600061666f602f83616d75565b91507f416363657373436f6e74726f6c3a2063616e206f6e6c792072656e6f756e636560008301527f20726f6c657320666f722073656c6600000000000000000000000000000000006020830152604082019050919050565b6166d181616f2d565b82525050565b6166e081616f2d565b82525050565b60006166f28285615d39565b91506166fe8284615d39565b9150616709826161a6565b91508190509392505050565b600061672082616318565b915061672c8285615d39565b9150616737826165bc565b91506167438284615d39565b91508190509392505050565b60006020820190506167646000830184615c2d565b92915050565b600060a08201905061677f6000830188615c2d565b61678c6020830187615c2d565b818103604083015261679e8186615c3c565b905081810360608301526167b28185615c3c565b905081810360808301526167c68184615cb8565b90509695505050505050565b600060a0820190506167e76000830188615c2d565b6167f46020830187615c2d565b61680160408301866166d7565b61680e60608301856166d7565b81810360808301526168208184615cb8565b90509695505050505050565b600060208201905081810360008301526168468184615c3c565b905092915050565b600060408201905081810360008301526168688185615c3c565b9050818103602083015261687c8184615c3c565b90509392505050565b600060208201905061689a6000830184615c9a565b92915050565b60006020820190506168b56000830184615ca9565b92915050565b60006020820190506168d06000830184615cf1565b92915050565b600060208201905081810360008301526168f08184615d00565b905092915050565b6000602082019050818103600083015261691181615d6a565b9050919050565b6000602082019050818103600083015261693181615dd0565b9050919050565b6000602082019050818103600083015261695181615e10565b9050919050565b6000602082019050818103600083015261697181615e76565b9050919050565b6000602082019050818103600083015261699181615edc565b9050919050565b600060208201905081810360008301526169b181615f42565b9050919050565b600060208201905081810360008301526169d181615fa8565b9050919050565b600060208201905081810360008301526169f18161600e565b9050919050565b60006020820190508181036000830152616a1181616074565b9050919050565b60006020820190508181036000830152616a31816160da565b9050919050565b60006020820190508181036000830152616a5181616140565b9050919050565b60006020820190508181036000830152616a71816161e6565b9050919050565b60006020820190508181036000830152616a918161624c565b9050919050565b60006020820190508181036000830152616ab1816162b2565b9050919050565b60006020820190508181036000830152616ad181616358565b9050919050565b60006020820190508181036000830152616af1816163be565b9050919050565b60006020820190508181036000830152616b1181616424565b9050919050565b60006020820190508181036000830152616b318161648a565b9050919050565b60006020820190508181036000830152616b51816164f0565b9050919050565b60006020820190508181036000830152616b7181616556565b9050919050565b60006020820190508181036000830152616b91816165fc565b9050919050565b60006020820190508181036000830152616bb181616662565b9050919050565b6000602082019050616bcd60008301846166d7565b92915050565b6000604082019050616be860008301856166d7565b8181036020830152616bfa8184615c3c565b90509392505050565b6000604082019050616c1860008301856166d7565b616c2560208301846166d7565b9392505050565b6000604051905081810181811067ffffffffffffffff82111715616c5357616c5261711d565b5b8060405250919050565b600067ffffffffffffffff821115616c7857616c7761711d565b5b602082029050602081019050919050565b600067ffffffffffffffff821115616ca457616ca361711d565b5b602082029050602081019050919050565b600067ffffffffffffffff821115616cd057616ccf61711d565b5b601f19601f8301169050602081019050919050565b600067ffffffffffffffff821115616d0057616cff61711d565b5b601f19601f8301169050602081019050919050565b6000819050602082019050919050565b600081519050919050565b600081519050919050565b600081519050919050565b6000602082019050919050565b600082825260208201905092915050565b600082825260208201905092915050565b600082825260208201905092915050565b600081905092915050565b6000616d9c82616f2d565b9150616da783616f2d565b9250827fffffffffffffffffffffffffffffffffffffffffffffffffffffffffffffffff03821115616ddc57616ddb617061565b5b828201905092915050565b6000616df282616f2d565b9150616dfd83616f2d565b925082616e0d57616e0c617090565b5b828204905092915050565b6000616e2382616f2d565b9150616e2e83616f2d565b9250817fffffffffffffffffffffffffffffffffffffffffffffffffffffffffffffffff0483118215151615616e6757616e66617061565b5b828202905092915050565b6000616e7d82616f2d565b9150616e8883616f2d565b925082821015616e9b57616e9a617061565b5b828203905092915050565b6000616eb182616f0d565b9050919050565b60008115159050919050565b6000819050919050565b60007fffffffff0000000000000000000000000000000000000000000000000000000082169050919050565b6000819050616f0882617220565b919050565b600073ffffffffffffffffffffffffffffffffffffffff82169050919050565b6000819050919050565b6000616f4282616efa565b9050919050565b82818337600083830152505050565b60005b83811015616f76578082015181840152602081019050616f5b565b83811115616f85576000848401525b50505050565b6000616f9682616f2d565b91506000821415616faa57616fa9617061565b5b600182039050919050565b60006002820490506001821680616fcd57607f821691505b60208210811415616fe157616fe06170ee565b5b50919050565b6000616ff282616f2d565b91507fffffffffffffffffffffffffffffffffffffffffffffffffffffffffffffffff82141561702557617024617061565b5b600182019050919050565b600061703b82616f2d565b915061704683616f2d565b92508261705657617055617090565b5b828206905092915050565b7f4e487b7100000000000000000000000000000000000000000000000000000000600052601160045260246000fd5b7f4e487b7100000000000000000000000000000000000000000000000000000000600052601260045260246000fd5b7f4e487b7100000000000000000000000000000000000000000000000000000000600052602160045260246000fd5b7f4e487b7100000000000000000000000000000000000000000000000000000000600052602260045260246000fd5b7f4e487b7100000000000000000000000000000000000000000000000000000000600052604160045260246000fd5b6000601f19601f8301169050919050565b60008160e01c9050919050565b600060443d101561717a5761721d565b60046000803e61718b60005161715d565b6308c379a0811461719c575061721d565b60405160043d036004823e80513d602482011167ffffffffffffffff821117156171c85750505061721d565b808201805167ffffffffffffffff8111156171e757505050505061721d565b8060208301013d85018111156172025750505050505061721d565b61720b8261714c565b60208401016040528296505050505050505b90565b60038110617231576172306170bf565b5b50565b61723d81616ea6565b811461724857600080fd5b50565b61725481616eb8565b811461725f57600080fd5b50565b61726b81616ec4565b811461727657600080fd5b50565b61728281616ece565b811461728d57600080fd5b50565b61729981616f2d565b81146172a457600080fd5b5056fea2646970667358221220b73b5fbbdfd347df24b5c65a2a57105e0baa4b252726233c789dc3e7e0fdc77664736f6c63430008000033",
  "immutableReferences": {},
  "source": "// SPDX-License-Identifier: MIT\npragma solidity ^0.8.0;\n\nimport \"./PresetAutoId.sol\";\nimport \"./Metadata.sol\";\nimport \"./InternalContractsHandler.sol\";\nimport \"@openzeppelin/contracts/utils/Strings.sol\";\n\ncontract DTRegistry is AccessControlEnumerable, CRC1155Enumerable, Metadata, InternalContractsHandler {\n    using Counters for Counters.Counter;\n    using Strings for uint256;\n\n    enum Lifecyclstate{EarlyPhase,MediumPhase,LaterPhase}\n    Lifecyclstate public attribute;\n\n    // Counter to auto generate token ID.\n    Counters.Counter private _tokenIdTracker;\n    \n    bytes32 public constant OWNER = keccak256(\"OWNER\");\n    bytes32 public constant DESIGNER = keccak256(\"DESIGNER\");\n    bytes32 public constant S_DESIGNER = keccak256(\"S_DESIGNER\");//Senior designer\n    bytes32 public constant J_DESIGNER = keccak256(\"J_DESIGNER\");//Junior designer\n    bytes32 public constant MANUFACTURER = keccak256(\"MANUFACTURER\");\n    bytes32 public constant AC_MANUFACTURER = keccak256(\"AC_MANUFACTURER\");//Accessories factory\n    bytes32 public constant AS_MANUFACTURER = keccak256(\"AS_MANUFACTURER\");//ASsembly workshop\n    bytes32 public constant SERVICER = keccak256(\"SERVICER\");\n    bytes32 public constant O_SERVICER = keccak256(\"O_SERVICER\");//operations\n    bytes32 public constant T_SERVICER = keccak256(\"T_SERVICER\");//Tester\n    bytes32 public constant MAINTAINER = keccak256(\"MAINTAINER\");\n    bytes32 public constant RECYCLER = keccak256(\"RECYCLER\");\n\n\n\n    constructor(\n        string memory name_,\n        string memory symbol_,\n        string memory cesslink_\n    ) Metadata(name_, symbol_) ERC1155(cesslink_) {\n        _setupRole(DEFAULT_ADMIN_ROLE, _msgSender());\n        _setupRole(OWNER, _msgSender());//OWNER\n        \n\n        // _setupRole(DESIGNER, _msgSender());\n        // _setupRole(MANUFACTURER, _msgSender());\n        // _setupRole(SERVICER, _msgSender());\n        // _setupRole(MAINTAINER, _msgSender());\n        // _setupRole(RECYCLER, _msgSender());\n    }\n\n    event UpdateLife();\n    event UpdateRole();\n    event UpdateDesignDrawings();\n    event UpdateManufacturingProgress();\n    event UpdateServiceLogs();\n    event UpdateMaintenanceLogs();\n    event MintNFT();\n\n    string public designDrawings;\n    string public manufacturingProgress;\n    string public serviceLogs;\n    string public maintenanceLogs;\n\n\n    /**\n     * @dev Update the life cycle phase of the digital twin.\n     *\n     * Requirements:\n     *\n     * - the caller must have the `OWNER`.\n     */\n    function updatelife (uint256 state) public virtual {\n        require(hasRole(OWNER, _msgSender()), \"Updatelife: must have the correct role permissions\");\n        require(state ==1 || state ==2 || state ==3, \"Updatelife: must have the correct state sequence number\"); \n        _updatelife(state);\n        emit UpdateLife();\n    }\n\n    function _updatelife (uint256 state) internal virtual {\n        if (state == 1){\n            attribute = Lifecyclstate.EarlyPhase;\n        }else if (state == 2){\n            attribute = Lifecyclstate.MediumPhase;\n        }else {\n            attribute = Lifecyclstate.LaterPhase;\n        }\n    }\n\n\n    /**\n     * @dev add/remove a account as the role of `DESIGNER`.\n     *\n     * Requirements:\n     *\n     * - the caller must have the `OWNER`.\n     */\n\n    function addDesigner(address designer_) external {\n        require(hasRole(OWNER, _msgSender()), \"addDesigner: must have the correct role permissions\");\n        grantRole(DESIGNER, designer_);\n        emit UpdateRole();\n    }\n\n    function removeDesigner(address designer_) external {\n        require(hasRole(OWNER, _msgSender()), \"addDesigner: must have the correct role permissions\");\n        revokeRole(DESIGNER, designer_);\n        emit UpdateRole();\n    }\n\n    /**\n     * @dev add/remove a account as the role of `J_DESIGNER` and `S_DESIGNER`.\n     *\n     * Requirements:\n     *\n     * - the caller must have the `DESIGNER`.\n     */\n\n    function addJDesigner(address jdesigner_) external {\n        require(hasRole(DESIGNER, _msgSender()), \"addDesigner: must have the correct role permissions\");\n        grantRole(J_DESIGNER, jdesigner_);\n        emit UpdateRole();\n    }\n\n    function removeJDesigner(address jdesigner_) external {\n        require(hasRole(DESIGNER, _msgSender()), \"addDesigner: must have the correct role permissions\");\n        revokeRole(J_DESIGNER, jdesigner_);\n        emit UpdateRole();\n    }\n    function addSDesigner(address sdesigner_) external {\n        require(hasRole(DESIGNER, _msgSender()), \"addDesigner: must have the correct role permissions\");\n        grantRole(S_DESIGNER, sdesigner_);\n        emit UpdateRole();\n    }\n\n    function removeSDesigner(address sdesigner_) external {\n        require(hasRole(DESIGNER, _msgSender()), \"addDesigner: must have the correct role permissions\");\n        revokeRole(S_DESIGNER, sdesigner_);\n        emit UpdateRole();\n    }\n\n    /**\n     * @dev add/remove a account as the role of `MANUFACTURER`.\n     *\n     * Requirements:\n     *\n     * - the caller must have the `OWNER`.\n     */\n\n    function addManufacturer(address manufacturer_) external {\n        require(hasRole(OWNER, _msgSender()), \"addDesigner: must have the correct role permissions\");\n        grantRole(MANUFACTURER, manufacturer_);\n        emit UpdateRole();\n    }\n\n    function removeManufacturer(address manufacturer_) external {\n        require(hasRole(OWNER, _msgSender()), \"addDesigner: must have the correct role permissions\");\n        revokeRole(MANUFACTURER, manufacturer_);\n        emit UpdateRole();\n    }\n\n    /**\n     * @dev add/remove a account as the role of `AC_MANUFACTURER` and `AS_MANUFACTURER`.\n     *\n     * Requirements:\n     *\n     * - the caller must have the `MANUFACTURER`.\n     */\n\n    function addACManufacturer(address acmanufacturer_) external {\n        require(hasRole(MANUFACTURER, _msgSender()), \"addDesigner: must have the correct role permissions\");\n        grantRole(AC_MANUFACTURER, acmanufacturer_);\n        emit UpdateRole();\n    }\n\n    function removeACManufacturer(address acmanufacturer_) external {\n        require(hasRole(MANUFACTURER, _msgSender()), \"addDesigner: must have the correct role permissions\");\n        revokeRole(AC_MANUFACTURER, acmanufacturer_);\n        emit UpdateRole();\n    }\n    function addASManufacturer(address asmanufacturer_) external {\n        require(hasRole(MANUFACTURER, _msgSender()), \"addDesigner: must have the correct role permissions\");\n        grantRole(AS_MANUFACTURER, asmanufacturer_);\n        emit UpdateRole();\n    }\n\n    function removeASManufacturer(address asmanufacturer_) external {\n        require(hasRole(MANUFACTURER, _msgSender()), \"addDesigner: must have the correct role permissions\");\n        revokeRole(AS_MANUFACTURER, asmanufacturer_);\n        emit UpdateRole();\n    }\n\n    /**\n     * @dev add/remove a account as the role of SERVICER`.\n     *\n     * Requirements:\n     *\n     * - the caller must have the `OWNER`.\n     */\n\n    function addServicer(address servicer_) external {\n        require(hasRole(OWNER, _msgSender()), \"addDesigner: must have the correct role permissions\");\n        grantRole(SERVICER, servicer_);\n        emit UpdateRole();\n    }\n\n    function removeServicer(address servicer_) external {\n        require(hasRole(OWNER, _msgSender()), \"addDesigner: must have the correct role permissions\");\n        revokeRole(SERVICER, servicer_);\n        emit UpdateRole();\n    }\n\n    /**\n     * @dev add/remove a account as the role of `O_SERVICER` and `T_SERVICER`.\n     *\n     * Requirements:\n     *\n     * - the caller must have the `SERVICER`.\n     */\n\n    function addOServicer(address oservicer_) external {\n        require(hasRole(SERVICER, _msgSender()), \"addDesigner: must have the correct role permissions\");\n        grantRole(O_SERVICER, oservicer_);\n        emit UpdateRole();\n    }\n\n    function removeOServicer(address oservicer_) external {\n        require(hasRole(SERVICER, _msgSender()), \"addDesigner: must have the correct role permissions\");\n        revokeRole(O_SERVICER, oservicer_);\n        emit UpdateRole();\n    }\n    function addTServicer(address tservicer_) external {\n        require(hasRole(SERVICER, _msgSender()), \"addDesigner: must have the correct role permissions\");\n        grantRole(T_SERVICER, tservicer_);\n        emit UpdateRole();\n    }\n\n    function removeTServicer(address tservicer_) external {\n        require(hasRole(SERVICER, _msgSender()), \"addDesigner: must have the correct role permissions\");\n        revokeRole(T_SERVICER, tservicer_);\n        emit UpdateRole();\n    }\n\n    /**\n     * @dev add/remove a account as the role of `MAINTAINER`.\n     *\n     * Requirements:\n     *\n     * - the caller must have the `OWNER`.\n     */\n\n    function addMaintainer(address maintainer_) external {\n        require(hasRole(OWNER, _msgSender()), \"addDesigner: must have the correct role permissions\");\n        grantRole(MAINTAINER, maintainer_);\n        emit UpdateRole();\n    }\n\n    function removeMaintainer(address maintainer_) external {\n        require(hasRole(OWNER, _msgSender()), \"addDesigner: must have the correct role permissions\");\n        revokeRole(MAINTAINER, maintainer_);\n        emit UpdateRole();\n    }\n\n    /**\n     * @dev add/remove a account as the role of `RECYCLER`.\n     *\n     * Requirements:\n     *\n     * - the caller must have the `OWNER`.\n     */\n    function addRecycler(address recycler_) external {\n        require(hasRole(OWNER, _msgSender()), \"addDesigner: must have the correct role permissions\");\n        grantRole(RECYCLER, recycler_);\n        emit UpdateRole();\n    }\n\n    function removeRecycler(address recycler_) external {\n        require(hasRole(OWNER, _msgSender()), \"addDesigner: must have the correct role permissions\");\n        revokeRole(RECYCLER, recycler_);\n        emit UpdateRole();\n    }\n\n\n\n    /**\n     * @dev Update design drawing .\n     *\n     * Requirements:\n     *\n     * - the caller must have the `DESIGNER`.\n     */\n    function addDesignDrawings(string memory drawings) public virtual {\n        require(hasRole(DESIGNER, _msgSender()), \"addDesignDrawings: must have the correct role permissions\");\n        designDrawings = drawings;\n        emit UpdateDesignDrawings();\n    }\n\n    /**\n     * @dev Update manufacturing progress .\n     *\n     * Requirements:\n     *\n     * - the caller must have the `MANUFACTURER`.\n     */\n    function addManufacturingProgress(string memory progress) public virtual {\n        require(hasRole(MANUFACTURER, _msgSender()), \"addManufacturingProgress: must have the correct role permissions\");\n        manufacturingProgress = progress;\n        emit UpdateManufacturingProgress();\n    }\n\n    /**\n     * @dev Update service logs .\n     *\n     * Requirements:\n     *\n     * - the caller must have the `SERVICER`.\n     */\n    function addServiceLogs(string memory slogs) public virtual {\n        require(hasRole(SERVICER, _msgSender()), \"addServiceLogs: must have the correct role permissions\");\n        serviceLogs = slogs;\n        emit UpdateServiceLogs();\n    }\n\n    /**\n     * @dev Update maintenance logs .\n     *\n     * Requirements:\n     *\n     * - the caller must have the `MAINTAINER`.\n     */\n    function addMaintenanceLogs(string memory mlogs) public virtual {\n        require(hasRole(MAINTAINER, _msgSender()), \"addMaintenanceLogs: must have the correct role permissions\");\n        maintenanceLogs = mlogs;\n        emit UpdateMaintenanceLogs();\n    }\n\n    /**\n     * @dev Creates `amount` new NFT for `to`, of token type `id`.\n     *\n     * See {ERC1155-_mint}.\n     *\n     * Requirements:\n     *\n     * - the caller must have the `RECYCLER`.\n     */\n    function mint(\n        address to,\n        uint256 amount,\n        bytes memory data\n    ) public virtual {\n        require(hasRole(RECYCLER, _msgSender()), \"DTNFTmint: must have the correct role permissions\");\n        _mint(to, _tokenIdTracker.current()+1, amount, data);\n        _tokenIdTracker.increment();\n        emit MintNFT();\n    }\n\n\n    /**\n     * @dev Update the URI for all tokens.\n     *\n     * Requirements:\n     *\n     * - the caller must have the `OWNER`.\n     */\n    function setURI(string memory newuri) public virtual {\n        require(hasRole(OWNER, _msgSender()), \"DTNFTsetURI: must have the correct role permissions\");\n        _setURI(newuri);\n    }\n\n    /**\n     * @dev See {IERC1155MetadataURI-uri}.\n     *\n     * This implementation returns the same URI for *all* token types. It relies\n     * on the token type ID substitution mechanism\n     * https://eips.ethereum.org/EIPS/eip-1155#metadata[defined in the EIP].\n     *\n     * Clients calling this function must replace the `\\{id\\}` substring with the\n     * actual token type ID.\n     */\n    function uri(uint256 tokenId) public view virtual override(ERC1155, IERC1155MetadataURI) returns (string memory) {\n        return string(abi.encodePacked(ERC1155.uri(tokenId), tokenId.toString(), \".json\"));\n    }\n\n\n    /**\n     * @dev See {IERC165-supportsInterface}.\n     */\n    function supportsInterface(bytes4 interfaceId) public view virtual override(AccessControlEnumerable, CRC1155Enumerable, IERC165) returns (bool) {\n        return AccessControlEnumerable.supportsInterface(interfaceId) || CRC1155Enumerable.supportsInterface(interfaceId);\n    }\n\n}\n",
  "sourcePath": "/f/Digitaltwins/contracts/DTRegistry.sol",
  "compiler": {
    "name": "solc",
    "version": "0.8.0+commit.c7dfd78e.Emscripten.clang"
  },
  "schemaVersion": "3.3.4",
  "updatedAt": "2022-06-10T08:39:58.315Z",
  "devdoc": {
    "kind": "dev",
    "methods": {
      "addACManufacturer(address)": {
        "details": "add/remove a account as the role of `AC_MANUFACTURER` and `AS_MANUFACTURER`. Requirements: - the caller must have the `MANUFACTURER`."
      },
      "addDesignDrawings(string)": {
        "details": "Update design drawing . Requirements: - the caller must have the `DESIGNER`."
      },
      "addDesigner(address)": {
        "details": "add/remove a account as the role of `DESIGNER`. Requirements: - the caller must have the `OWNER`."
      },
      "addJDesigner(address)": {
        "details": "add/remove a account as the role of `J_DESIGNER` and `S_DESIGNER`. Requirements: - the caller must have the `DESIGNER`."
      },
      "addMaintainer(address)": {
        "details": "add/remove a account as the role of `MAINTAINER`. Requirements: - the caller must have the `OWNER`."
      },
      "addMaintenanceLogs(string)": {
        "details": "Update maintenance logs . Requirements: - the caller must have the `MAINTAINER`."
      },
      "addManufacturer(address)": {
        "details": "add/remove a account as the role of `MANUFACTURER`. Requirements: - the caller must have the `OWNER`."
      },
      "addManufacturingProgress(string)": {
        "details": "Update manufacturing progress . Requirements: - the caller must have the `MANUFACTURER`."
      },
      "addOServicer(address)": {
        "details": "add/remove a account as the role of `O_SERVICER` and `T_SERVICER`. Requirements: - the caller must have the `SERVICER`."
      },
      "addRecycler(address)": {
        "details": "add/remove a account as the role of `RECYCLER`. Requirements: - the caller must have the `OWNER`."
      },
      "addServiceLogs(string)": {
        "details": "Update service logs . Requirements: - the caller must have the `SERVICER`."
      },
      "addServicer(address)": {
        "details": "add/remove a account as the role of SERVICER`. Requirements: - the caller must have the `OWNER`."
      },
      "balanceOf(address,uint256)": {
        "details": "See {IERC1155-balanceOf}. Requirements: - `account` cannot be the zero address."
      },
      "balanceOfBatch(address[],uint256[])": {
        "details": "See {IERC1155-balanceOfBatch}. Requirements: - `accounts` and `ids` must have the same length."
      },
      "exists(uint256)": {
        "details": "Indicates whether the specified `tokenId` exists or not."
      },
      "getRoleAdmin(bytes32)": {
        "details": "Returns the admin role that controls `role`. See {grantRole} and {revokeRole}. To change a role's admin, use {_setRoleAdmin}."
      },
      "getRoleMember(bytes32,uint256)": {
        "details": "Returns one of the accounts that have `role`. `index` must be a value between 0 and {getRoleMemberCount}, non-inclusive. Role bearers are not sorted in any particular way, and their ordering may change at any point. WARNING: When using {getRoleMember} and {getRoleMemberCount}, make sure you perform all queries on the same block. See the following https://forum.openzeppelin.com/t/iterating-over-elements-on-enumerableset-in-openzeppelin-contracts/2296[forum post] for more information."
      },
      "getRoleMemberCount(bytes32)": {
        "details": "Returns the number of accounts that have `role`. Can be used together with {getRoleMember} to enumerate all bearers of a role."
      },
      "grantRole(bytes32,address)": {
        "details": "Grants `role` to `account`. If `account` had not been already granted `role`, emits a {RoleGranted} event. Requirements: - the caller must have ``role``'s admin role."
      },
      "hasRole(bytes32,address)": {
        "details": "Returns `true` if `account` has been granted `role`."
      },
      "isApprovedForAll(address,address)": {
        "details": "See {IERC1155-isApprovedForAll}."
      },
      "mint(address,uint256,bytes)": {
        "details": "Creates `amount` new NFT for `to`, of token type `id`. See {ERC1155-_mint}. Requirements: - the caller must have the `RECYCLER`."
      },
      "name()": {
        "details": "Returns the token collection name."
      },
      "renounceRole(bytes32,address)": {
        "details": "Revokes `role` from the calling account. Roles are often managed via {grantRole} and {revokeRole}: this function's purpose is to provide a mechanism for accounts to lose their privileges if they are compromised (such as when a trusted device is misplaced). If the calling account had been revoked `role`, emits a {RoleRevoked} event. Requirements: - the caller must be `account`."
      },
      "revokeRole(bytes32,address)": {
        "details": "Revokes `role` from `account`. If `account` had been granted `role`, emits a {RoleRevoked} event. Requirements: - the caller must have ``role``'s admin role."
      },
      "safeBatchTransferFrom(address,address,uint256[],uint256[],bytes)": {
        "details": "See {IERC1155-safeBatchTransferFrom}."
      },
      "safeTransferFrom(address,address,uint256,uint256,bytes)": {
        "details": "See {IERC1155-safeTransferFrom}."
      },
      "setApprovalForAll(address,bool)": {
        "details": "See {IERC1155-setApprovalForAll}."
      },
      "setURI(string)": {
        "details": "Update the URI for all tokens. Requirements: - the caller must have the `OWNER`."
      },
      "supportsInterface(bytes4)": {
        "details": "See {IERC165-supportsInterface}."
      },
      "symbol()": {
        "details": "Returns the token collection symbol."
      },
      "tokenByIndex(uint256)": {
        "details": "Returns the `index`-th tokenId stored by the contract."
      },
      "tokenCountOf(address)": {
        "details": "Returns the number of token ids held by `owner`."
      },
      "tokenOfOwnerByIndex(address,uint256)": {
        "details": "Returns the `index`-th tokenId held by `owner`."
      },
      "tokens(uint256,uint256)": {
        "details": "Returns token IDs in pagination view."
      },
      "tokensOf(address,uint256,uint256)": {
        "details": "Returns token IDs of specified `owner` in pagination view."
      },
      "totalSupply()": {
        "details": "Returns the number of different tokenIds stored by the contract."
      },
      "totalSupply(uint256)": {
        "details": "Returns the total amount of tokens for the specified `tokenId`."
      },
      "updatelife(uint256)": {
        "details": "Update the life cycle phase of the digital twin. Requirements: - the caller must have the `OWNER`."
      },
      "uri(uint256)": {
        "details": "See {IERC1155MetadataURI-uri}. This implementation returns the same URI for *all* token types. It relies on the token type ID substitution mechanism https://eips.ethereum.org/EIPS/eip-1155#metadata[defined in the EIP]. Clients calling this function must replace the `\\{id\\}` substring with the actual token type ID."
      }
    },
    "version": 1
  },
  "userdoc": {
    "kind": "user",
    "methods": {},
    "version": 1
  }
}