{
  "contractName": "InternalContracts",
  "abi": [
    {
      "inputs": [],
      "name": "ADMIN_CONTROL",
      "outputs": [
        {
          "internalType": "contract AdminControl",
          "name": "",
          "type": "AdminControl"
        }
      ],
      "stateMutability": "view",
      "type": "function"
    },
    {
      "inputs": [],
      "name": "CONFLUX_CONTEXT",
      "outputs": [
        {
          "internalType": "contract ConfluxContext",
          "name": "",
          "type": "ConfluxContext"
        }
      ],
      "stateMutability": "view",
      "type": "function"
    },
    {
      "inputs": [],
      "name": "POS_REGISTER",
      "outputs": [
        {
          "internalType": "contract PoSRegister",
          "name": "",
          "type": "PoSRegister"
        }
      ],
      "stateMutability": "view",
      "type": "function"
    },
    {
      "inputs": [],
      "name": "SPONSOR_CONTROL",
      "outputs": [
        {
          "internalType": "contract SponsorWhitelistControl",
          "name": "",
          "type": "SponsorWhitelistControl"
        }
      ],
      "stateMutability": "view",
      "type": "function"
    },
    {
      "inputs": [],
      "name": "STAKING",
      "outputs": [
        {
          "internalType": "contract Staking",
          "name": "",
          "type": "Staking"
        }
      ],
      "stateMutability": "view",
      "type": "function"
    }
  ],
  "bytecode": "0x610350610053600b82828239805160001a607314610046577f4e487b7100000000000000000000000000000000000000000000000000000000600052600060045260246000fd5b30600052607381538281f3fe73000000000000000000000000000000000000000030146080604052600436106100615760003560e01c8063040a000e146100665780635ddd094f146100845780637b0e2081146100a257806397610f30146100c0578063c785cedf146100de575b600080fd5b61006e6100fc565b60405161007b91906101f5565b60405180910390f35b61008c610114565b60405161009991906101da565b60405180910390f35b6100aa61012c565b6040516100b79190610210565b60405180910390f35b6100c8610144565b6040516100d5919061022b565b60405180910390f35b6100e661015c565b6040516100f391906101bf565b60405180910390f35b73088800000000000000000000000000000000000581565b73088800000000000000000000000000000000000481565b73088800000000000000000000000000000000000181565b73088800000000000000000000000000000000000281565b73088800000000000000000000000000000000000081565b61017d81610266565b82525050565b61018c8161028a565b82525050565b61019b816102ae565b82525050565b6101aa816102d2565b82525050565b6101b9816102f6565b82525050565b60006020820190506101d46000830184610174565b92915050565b60006020820190506101ef6000830184610183565b92915050565b600060208201905061020a6000830184610192565b92915050565b600060208201905061022560008301846101a1565b92915050565b600060208201905061024060008301846101b0565b92915050565b600073ffffffffffffffffffffffffffffffffffffffff82169050919050565b600061027182610278565b9050919050565b600061028382610246565b9050919050565b60006102958261029c565b9050919050565b60006102a782610246565b9050919050565b60006102b9826102c0565b9050919050565b60006102cb82610246565b9050919050565b60006102dd826102e4565b9050919050565b60006102ef82610246565b9050919050565b600061030182610308565b9050919050565b600061031382610246565b905091905056fea264697066735822122045f50c2cb89fa9203b723aab787fefc03fabe786b165e218c95bb2833838eff464736f6c63430008000033",
  "immutableReferences": {},
  "source": "// SPDX-License-Identifier: MIT\n\npragma solidity ^0.8.0;\n\nimport \"./AdminControl.sol\";\nimport \"./SponsorWhitelistControl.sol\";\nimport \"./Staking.sol\";\nimport \"./ConfluxContext.sol\";\nimport \"./PoSRegister.sol\";\n\n/**\n * @dev This library includes initialized Internal Contract instance.\n */\nlibrary InternalContracts {\n    /**\n     * @dev adminControl\n     */\n    AdminControl public constant ADMIN_CONTROL = AdminControl(0x0888000000000000000000000000000000000000);\n\n    /**\n     * @dev sponsorControl\n     */\n    SponsorWhitelistControl public constant SPONSOR_CONTROL =\n        SponsorWhitelistControl(0x0888000000000000000000000000000000000001);\n\n    /**\n     * @dev staking\n     */\n    Staking public constant STAKING = Staking(0x0888000000000000000000000000000000000002);\n\n    /**\n     * @dev ConfluxContext\n     */\n    ConfluxContext public constant CONFLUX_CONTEXT = ConfluxContext(0x0888000000000000000000000000000000000004);\n\n    /**\n     * @dev PoSRegister\n     */\n    PoSRegister public constant POS_REGISTER = PoSRegister(0x0888000000000000000000000000000000000005);\n}\n",
  "sourcePath": "@confluxfans/contracts/InternalContracts/InternalContractsLib.sol",
  "compiler": {
    "name": "solc",
    "version": "0.8.0+commit.c7dfd78e.Emscripten.clang"
  },
  "schemaVersion": "3.3.4",
  "updatedAt": "2022-05-19T01:55:05.154Z",
  "devdoc": {
    "details": "This library includes initialized Internal Contract instance.",
    "kind": "dev",
    "methods": {},
    "stateVariables": {
      "ADMIN_CONTROL": {
        "details": "adminControl"
      },
      "CONFLUX_CONTEXT": {
        "details": "ConfluxContext"
      },
      "POS_REGISTER": {
        "details": "PoSRegister"
      },
      "SPONSOR_CONTROL": {
        "details": "sponsorControl"
      },
      "STAKING": {
        "details": "staking"
      }
    },
    "version": 1
  },
  "userdoc": {
    "kind": "user",
    "methods": {},
    "version": 1
  }
}