{
  "contractName": "PresetAutoId",
  "abi": [
    {
      "inputs": [
        {
          "internalType": "string",
          "name": "uri",
          "type": "string"
        }
      ],
      "stateMutability": "nonpayable",
      "type": "constructor"
    },
    {
      "anonymous": false,
      "inputs": [
        {
          "indexed": true,
          "internalType": "address",
          "name": "account",
          "type": "address"
        },
        {
          "indexed": true,
          "internalType": "address",
          "name": "operator",
          "type": "address"
        },
        {
          "indexed": false,
          "internalType": "bool",
          "name": "approved",
          "type": "bool"
        }
      ],
      "name": "ApprovalForAll",
      "type": "event"
    },
    {
      "anonymous": false,
      "inputs": [
        {
          "indexed": false,
          "internalType": "address",
          "name": "account",
          "type": "address"
        }
      ],
      "name": "Paused",
      "type": "event"
    },
    {
      "anonymous": false,
      "inputs": [
        {
          "indexed": true,
          "internalType": "bytes32",
          "name": "role",
          "type": "bytes32"
        },
        {
          "indexed": true,
          "internalType": "bytes32",
          "name": "previousAdminRole",
          "type": "bytes32"
        },
        {
          "indexed": true,
          "internalType": "bytes32",
          "name": "newAdminRole",
          "type": "bytes32"
        }
      ],
      "name": "RoleAdminChanged",
      "type": "event"
    },
    {
      "anonymous": false,
      "inputs": [
        {
          "indexed": true,
          "internalType": "bytes32",
          "name": "role",
          "type": "bytes32"
        },
        {
          "indexed": true,
          "internalType": "address",
          "name": "account",
          "type": "address"
        },
        {
          "indexed": true,
          "internalType": "address",
          "name": "sender",
          "type": "address"
        }
      ],
      "name": "RoleGranted",
      "type": "event"
    },
    {
      "anonymous": false,
      "inputs": [
        {
          "indexed": true,
          "internalType": "bytes32",
          "name": "role",
          "type": "bytes32"
        },
        {
          "indexed": true,
          "internalType": "address",
          "name": "account",
          "type": "address"
        },
        {
          "indexed": true,
          "internalType": "address",
          "name": "sender",
          "type": "address"
        }
      ],
      "name": "RoleRevoked",
      "type": "event"
    },
    {
      "anonymous": false,
      "inputs": [
        {
          "indexed": true,
          "internalType": "address",
          "name": "operator",
          "type": "address"
        },
        {
          "indexed": true,
          "internalType": "address",
          "name": "from",
          "type": "address"
        },
        {
          "indexed": true,
          "internalType": "address",
          "name": "to",
          "type": "address"
        },
        {
          "indexed": false,
          "internalType": "uint256[]",
          "name": "ids",
          "type": "uint256[]"
        },
        {
          "indexed": false,
          "internalType": "uint256[]",
          "name": "values",
          "type": "uint256[]"
        }
      ],
      "name": "TransferBatch",
      "type": "event"
    },
    {
      "anonymous": false,
      "inputs": [
        {
          "indexed": true,
          "internalType": "address",
          "name": "operator",
          "type": "address"
        },
        {
          "indexed": true,
          "internalType": "address",
          "name": "from",
          "type": "address"
        },
        {
          "indexed": true,
          "internalType": "address",
          "name": "to",
          "type": "address"
        },
        {
          "indexed": false,
          "internalType": "uint256",
          "name": "id",
          "type": "uint256"
        },
        {
          "indexed": false,
          "internalType": "uint256",
          "name": "value",
          "type": "uint256"
        }
      ],
      "name": "TransferSingle",
      "type": "event"
    },
    {
      "anonymous": false,
      "inputs": [
        {
          "indexed": false,
          "internalType": "string",
          "name": "value",
          "type": "string"
        },
        {
          "indexed": true,
          "internalType": "uint256",
          "name": "id",
          "type": "uint256"
        }
      ],
      "name": "URI",
      "type": "event"
    },
    {
      "anonymous": false,
      "inputs": [
        {
          "indexed": false,
          "internalType": "address",
          "name": "account",
          "type": "address"
        }
      ],
      "name": "Unpaused",
      "type": "event"
    },
    {
      "inputs": [],
      "name": "DEFAULT_ADMIN_ROLE",
      "outputs": [
        {
          "internalType": "bytes32",
          "name": "",
          "type": "bytes32"
        }
      ],
      "stateMutability": "view",
      "type": "function"
    },
    {
      "inputs": [],
      "name": "MINTER_ROLE",
      "outputs": [
        {
          "internalType": "bytes32",
          "name": "",
          "type": "bytes32"
        }
      ],
      "stateMutability": "view",
      "type": "function"
    },
    {
      "inputs": [],
      "name": "PAUSER_ROLE",
      "outputs": [
        {
          "internalType": "bytes32",
          "name": "",
          "type": "bytes32"
        }
      ],
      "stateMutability": "view",
      "type": "function"
    },
    {
      "inputs": [
        {
          "internalType": "address",
          "name": "account",
          "type": "address"
        },
        {
          "internalType": "uint256",
          "name": "id",
          "type": "uint256"
        }
      ],
      "name": "balanceOf",
      "outputs": [
        {
          "internalType": "uint256",
          "name": "",
          "type": "uint256"
        }
      ],
      "stateMutability": "view",
      "type": "function"
    },
    {
      "inputs": [
        {
          "internalType": "address[]",
          "name": "accounts",
          "type": "address[]"
        },
        {
          "internalType": "uint256[]",
          "name": "ids",
          "type": "uint256[]"
        }
      ],
      "name": "balanceOfBatch",
      "outputs": [
        {
          "internalType": "uint256[]",
          "name": "",
          "type": "uint256[]"
        }
      ],
      "stateMutability": "view",
      "type": "function"
    },
    {
      "inputs": [
        {
          "internalType": "address",
          "name": "account",
          "type": "address"
        },
        {
          "internalType": "uint256",
          "name": "id",
          "type": "uint256"
        },
        {
          "internalType": "uint256",
          "name": "value",
          "type": "uint256"
        }
      ],
      "name": "burn",
      "outputs": [],
      "stateMutability": "nonpayable",
      "type": "function"
    },
    {
      "inputs": [
        {
          "internalType": "address",
          "name": "account",
          "type": "address"
        },
        {
          "internalType": "uint256[]",
          "name": "ids",
          "type": "uint256[]"
        },
        {
          "internalType": "uint256[]",
          "name": "values",
          "type": "uint256[]"
        }
      ],
      "name": "burnBatch",
      "outputs": [],
      "stateMutability": "nonpayable",
      "type": "function"
    },
    {
      "inputs": [
        {
          "internalType": "uint256",
          "name": "tokenId",
          "type": "uint256"
        }
      ],
      "name": "exists",
      "outputs": [
        {
          "internalType": "bool",
          "name": "",
          "type": "bool"
        }
      ],
      "stateMutability": "view",
      "type": "function"
    },
    {
      "inputs": [
        {
          "internalType": "bytes32",
          "name": "role",
          "type": "bytes32"
        }
      ],
      "name": "getRoleAdmin",
      "outputs": [
        {
          "internalType": "bytes32",
          "name": "",
          "type": "bytes32"
        }
      ],
      "stateMutability": "view",
      "type": "function"
    },
    {
      "inputs": [
        {
          "internalType": "bytes32",
          "name": "role",
          "type": "bytes32"
        },
        {
          "internalType": "uint256",
          "name": "index",
          "type": "uint256"
        }
      ],
      "name": "getRoleMember",
      "outputs": [
        {
          "internalType": "address",
          "name": "",
          "type": "address"
        }
      ],
      "stateMutability": "view",
      "type": "function"
    },
    {
      "inputs": [
        {
          "internalType": "bytes32",
          "name": "role",
          "type": "bytes32"
        }
      ],
      "name": "getRoleMemberCount",
      "outputs": [
        {
          "internalType": "uint256",
          "name": "",
          "type": "uint256"
        }
      ],
      "stateMutability": "view",
      "type": "function"
    },
    {
      "inputs": [
        {
          "internalType": "bytes32",
          "name": "role",
          "type": "bytes32"
        },
        {
          "internalType": "address",
          "name": "account",
          "type": "address"
        }
      ],
      "name": "grantRole",
      "outputs": [],
      "stateMutability": "nonpayable",
      "type": "function"
    },
    {
      "inputs": [
        {
          "internalType": "bytes32",
          "name": "role",
          "type": "bytes32"
        },
        {
          "internalType": "address",
          "name": "account",
          "type": "address"
        }
      ],
      "name": "hasRole",
      "outputs": [
        {
          "internalType": "bool",
          "name": "",
          "type": "bool"
        }
      ],
      "stateMutability": "view",
      "type": "function"
    },
    {
      "inputs": [
        {
          "internalType": "address",
          "name": "account",
          "type": "address"
        },
        {
          "internalType": "address",
          "name": "operator",
          "type": "address"
        }
      ],
      "name": "isApprovedForAll",
      "outputs": [
        {
          "internalType": "bool",
          "name": "",
          "type": "bool"
        }
      ],
      "stateMutability": "view",
      "type": "function"
    },
    {
      "inputs": [],
      "name": "pause",
      "outputs": [],
      "stateMutability": "nonpayable",
      "type": "function"
    },
    {
      "inputs": [],
      "name": "paused",
      "outputs": [
        {
          "internalType": "bool",
          "name": "",
          "type": "bool"
        }
      ],
      "stateMutability": "view",
      "type": "function"
    },
    {
      "inputs": [
        {
          "internalType": "bytes32",
          "name": "role",
          "type": "bytes32"
        },
        {
          "internalType": "address",
          "name": "account",
          "type": "address"
        }
      ],
      "name": "renounceRole",
      "outputs": [],
      "stateMutability": "nonpayable",
      "type": "function"
    },
    {
      "inputs": [
        {
          "internalType": "bytes32",
          "name": "role",
          "type": "bytes32"
        },
        {
          "internalType": "address",
          "name": "account",
          "type": "address"
        }
      ],
      "name": "revokeRole",
      "outputs": [],
      "stateMutability": "nonpayable",
      "type": "function"
    },
    {
      "inputs": [
        {
          "internalType": "address",
          "name": "from",
          "type": "address"
        },
        {
          "internalType": "address",
          "name": "to",
          "type": "address"
        },
        {
          "internalType": "uint256[]",
          "name": "ids",
          "type": "uint256[]"
        },
        {
          "internalType": "uint256[]",
          "name": "amounts",
          "type": "uint256[]"
        },
        {
          "internalType": "bytes",
          "name": "data",
          "type": "bytes"
        }
      ],
      "name": "safeBatchTransferFrom",
      "outputs": [],
      "stateMutability": "nonpayable",
      "type": "function"
    },
    {
      "inputs": [
        {
          "internalType": "address",
          "name": "from",
          "type": "address"
        },
        {
          "internalType": "address",
          "name": "to",
          "type": "address"
        },
        {
          "internalType": "uint256",
          "name": "id",
          "type": "uint256"
        },
        {
          "internalType": "uint256",
          "name": "amount",
          "type": "uint256"
        },
        {
          "internalType": "bytes",
          "name": "data",
          "type": "bytes"
        }
      ],
      "name": "safeTransferFrom",
      "outputs": [],
      "stateMutability": "nonpayable",
      "type": "function"
    },
    {
      "inputs": [
        {
          "internalType": "address",
          "name": "operator",
          "type": "address"
        },
        {
          "internalType": "bool",
          "name": "approved",
          "type": "bool"
        }
      ],
      "name": "setApprovalForAll",
      "outputs": [],
      "stateMutability": "nonpayable",
      "type": "function"
    },
    {
      "inputs": [
        {
          "internalType": "uint256",
          "name": "index",
          "type": "uint256"
        }
      ],
      "name": "tokenByIndex",
      "outputs": [
        {
          "internalType": "uint256",
          "name": "",
          "type": "uint256"
        }
      ],
      "stateMutability": "view",
      "type": "function"
    },
    {
      "inputs": [
        {
          "internalType": "address",
          "name": "owner",
          "type": "address"
        }
      ],
      "name": "tokenCountOf",
      "outputs": [
        {
          "internalType": "uint256",
          "name": "",
          "type": "uint256"
        }
      ],
      "stateMutability": "view",
      "type": "function"
    },
    {
      "inputs": [
        {
          "internalType": "address",
          "name": "owner",
          "type": "address"
        },
        {
          "internalType": "uint256",
          "name": "index",
          "type": "uint256"
        }
      ],
      "name": "tokenOfOwnerByIndex",
      "outputs": [
        {
          "internalType": "uint256",
          "name": "",
          "type": "uint256"
        }
      ],
      "stateMutability": "view",
      "type": "function"
    },
    {
      "inputs": [
        {
          "internalType": "uint256",
          "name": "offset",
          "type": "uint256"
        },
        {
          "internalType": "uint256",
          "name": "limit",
          "type": "uint256"
        }
      ],
      "name": "tokens",
      "outputs": [
        {
          "internalType": "uint256",
          "name": "total",
          "type": "uint256"
        },
        {
          "internalType": "uint256[]",
          "name": "tokenIds",
          "type": "uint256[]"
        }
      ],
      "stateMutability": "view",
      "type": "function"
    },
    {
      "inputs": [
        {
          "internalType": "address",
          "name": "owner",
          "type": "address"
        },
        {
          "internalType": "uint256",
          "name": "offset",
          "type": "uint256"
        },
        {
          "internalType": "uint256",
          "name": "limit",
          "type": "uint256"
        }
      ],
      "name": "tokensOf",
      "outputs": [
        {
          "internalType": "uint256",
          "name": "total",
          "type": "uint256"
        },
        {
          "internalType": "uint256[]",
          "name": "tokenIds",
          "type": "uint256[]"
        }
      ],
      "stateMutability": "view",
      "type": "function"
    },
    {
      "inputs": [],
      "name": "totalSupply",
      "outputs": [
        {
          "internalType": "uint256",
          "name": "",
          "type": "uint256"
        }
      ],
      "stateMutability": "view",
      "type": "function"
    },
    {
      "inputs": [
        {
          "internalType": "uint256",
          "name": "tokenId",
          "type": "uint256"
        }
      ],
      "name": "totalSupply",
      "outputs": [
        {
          "internalType": "uint256",
          "name": "",
          "type": "uint256"
        }
      ],
      "stateMutability": "view",
      "type": "function"
    },
    {
      "inputs": [],
      "name": "unpause",
      "outputs": [],
      "stateMutability": "nonpayable",
      "type": "function"
    },
    {
      "inputs": [
        {
          "internalType": "uint256",
          "name": "",
          "type": "uint256"
        }
      ],
      "name": "uri",
      "outputs": [
        {
          "internalType": "string",
          "name": "",
          "type": "string"
        }
      ],
      "stateMutability": "view",
      "type": "function"
    },
    {
      "inputs": [
        {
          "internalType": "string",
          "name": "newuri",
          "type": "string"
        }
      ],
      "name": "setURI",
      "outputs": [],
      "stateMutability": "nonpayable",
      "type": "function"
    },
    {
      "inputs": [
        {
          "internalType": "address",
          "name": "to",
          "type": "address"
        },
        {
          "internalType": "uint256",
          "name": "id",
          "type": "uint256"
        },
        {
          "internalType": "uint256",
          "name": "amount",
          "type": "uint256"
        },
        {
          "internalType": "bytes",
          "name": "data",
          "type": "bytes"
        }
      ],
      "name": "mint",
      "outputs": [],
      "stateMutability": "nonpayable",
      "type": "function"
    },
    {
      "inputs": [
        {
          "internalType": "address",
          "name": "to",
          "type": "address"
        },
        {
          "internalType": "uint256",
          "name": "amount",
          "type": "uint256"
        },
        {
          "internalType": "bytes",
          "name": "data",
          "type": "bytes"
        }
      ],
      "name": "mint",
      "outputs": [],
      "stateMutability": "nonpayable",
      "type": "function"
    },
    {
      "inputs": [
        {
          "internalType": "address",
          "name": "to",
          "type": "address"
        },
        {
          "internalType": "uint256[]",
          "name": "ids",
          "type": "uint256[]"
        },
        {
          "internalType": "uint256[]",
          "name": "amounts",
          "type": "uint256[]"
        },
        {
          "internalType": "bytes",
          "name": "data",
          "type": "bytes"
        }
      ],
      "name": "mintBatch",
      "outputs": [],
      "stateMutability": "nonpayable",
      "type": "function"
    },
    {
      "inputs": [
        {
          "internalType": "address",
          "name": "to",
          "type": "address"
        },
        {
          "internalType": "uint256[]",
          "name": "amounts",
          "type": "uint256[]"
        },
        {
          "internalType": "bytes",
          "name": "data",
          "type": "bytes"
        }
      ],
      "name": "mintBatch",
      "outputs": [],
      "stateMutability": "nonpayable",
      "type": "function"
    },
    {
      "inputs": [
        {
          "internalType": "bytes4",
          "name": "interfaceId",
          "type": "bytes4"
        }
      ],
      "name": "supportsInterface",
      "outputs": [
        {
          "internalType": "bool",
          "name": "",
          "type": "bool"
        }
      ],
      "stateMutability": "view",
      "type": "function"
    }
  ],
  "bytecode": "0x60806040523480156200001157600080fd5b5060405162006440380380620064408339818101604052810190620000379190620004e8565b80806200004a816200011460201b60201c565b506000600560006101000a81548160ff0219169083151502179055506200008a6000801b6200007e6200013060201b60201c565b6200013860201b60201c565b620000cb7f9f2df0fed2c77648de5860a4cc508cd0818c85b8b8a1ab4ceeef8d981c8956a6620000bf6200013060201b60201c565b6200013860201b60201c565b6200010c7f65d7a28e3265b37a6474929f336521b332c1681b933f6cb9f3376673440d862a620001006200013060201b60201c565b6200013860201b60201c565b50506200065e565b80600490805190602001906200012c929190620003c6565b5050565b600033905090565b6200014a82826200014e60201b60201c565b5050565b6200016582826200019660201b620017a41760201c565b6200019181600160008581526020019081526020016000206200028760201b620018841790919060201c565b505050565b620001a88282620002bf60201b60201c565b6200028357600160008084815260200190815260200160002060000160008373ffffffffffffffffffffffffffffffffffffffff1673ffffffffffffffffffffffffffffffffffffffff16815260200190815260200160002060006101000a81548160ff021916908315150217905550620002286200013060201b60201c565b73ffffffffffffffffffffffffffffffffffffffff168173ffffffffffffffffffffffffffffffffffffffff16837f2f8788117e7eff1d82e926ec794901d17c78024a50270940304540a733656f0d60405160405180910390a45b5050565b6000620002b7836000018373ffffffffffffffffffffffffffffffffffffffff1660001b6200032960201b60201c565b905092915050565b600080600084815260200190815260200160002060000160008373ffffffffffffffffffffffffffffffffffffffff1673ffffffffffffffffffffffffffffffffffffffff16815260200190815260200160002060009054906101000a900460ff16905092915050565b60006200033d8383620003a360201b60201c565b620003985782600001829080600181540180825580915050600190039060005260206000200160009091909190915055826000018054905083600101600084815260200190815260200160002081905550600190506200039d565b600090505b92915050565b600080836001016000848152602001908152602001600020541415905092915050565b828054620003d490620005ca565b90600052602060002090601f016020900481019282620003f8576000855562000444565b82601f106200041357805160ff191683800117855562000444565b8280016001018555821562000444579182015b828111156200044357825182559160200191906001019062000426565b5b50905062000453919062000457565b5090565b5b808211156200047257600081600090555060010162000458565b5090565b60006200048d620004878462000561565b6200052d565b905082815260208101848484011115620004a657600080fd5b620004b384828562000594565b509392505050565b600082601f830112620004cd57600080fd5b8151620004df84826020860162000476565b91505092915050565b600060208284031215620004fb57600080fd5b600082015167ffffffffffffffff8111156200051657600080fd5b6200052484828501620004bb565b91505092915050565b6000604051905081810181811067ffffffffffffffff821117156200055757620005566200062f565b5b8060405250919050565b600067ffffffffffffffff8211156200057f576200057e6200062f565b5b601f19601f8301169050602081019050919050565b60005b83811015620005b457808201518184015260208101905062000597565b83811115620005c4576000848401525b50505050565b60006002820490506001821680620005e357607f821691505b60208210811415620005fa57620005f962000600565b5b50919050565b7f4e487b7100000000000000000000000000000000000000000000000000000000600052602260045260246000fd5b7f4e487b7100000000000000000000000000000000000000000000000000000000600052604160045260246000fd5b615dd2806200066e6000396000f3fe608060405234801561001057600080fd5b506004361061021b5760003560e01c80636b20c45411610125578063b722938a116100ad578063d547741f1161007c578063d547741f14610696578063e63ab1e9146106b2578063e985e9c5146106d0578063f242432a14610700578063f5298aca1461071c5761021b565b8063b722938a146105e8578063bd85b03914610618578063ca15c87314610648578063d5391393146106785761021b565b80639010d07c116100f45780639010d07c1461053257806391d148541461056257806394d008ef14610592578063a217fddf146105ae578063a22cb465146105cc5761021b565b80636b20c454146104bf578063731133e9146104db5780638456cb59146104f75780638b4864d6146105015761021b565b80632eb2c2d6116101a85780633f4ba83a116101775780633f4ba83a146104075780634e1273f4146104115780634f558e79146104415780634f6ccce7146104715780635c975abb146104a15761021b565b80632eb2c2d6146103835780632f2ff15d1461039f5780632f745c59146103bb57806336568abe146103eb5761021b565b806318160ddd116101ef57806318160ddd146102cc5780631f7fdffa146102ea578063228624821461030657806323185dc914610322578063248a9ca3146103535761021b565b8062fdd58e1461022057806301ffc9a71461025057806302fe5305146102805780630e89341c1461029c575b600080fd5b61023a60048036038101906102359190614516565b610738565b60405161024791906157a6565b60405180910390f35b61026a60048036038101906102659190614790565b610802565b604051610277919061546e565b60405180910390f35b61029a600480360381019061029591906147e2565b610814565b005b6102b660048036038101906102b19190614823565b610873565b6040516102c391906154a4565b60405180910390f35b6102d4610907565b6040516102e191906157a6565b60405180910390f35b61030460048036038101906102ff91906143b0565b610918565b005b610320600480360381019061031b919061445b565b61099a565b005b61033c600480360381019061033791906145b9565b610a99565b60405161034a9291906157c1565b60405180910390f35b61036d600480360381019061036891906146ef565b610c5a565b60405161037a9190615489565b60405180910390f35b61039d600480360381019061039891906141e3565b610c79565b005b6103b960048036038101906103b49190614718565b610d1a565b005b6103d560048036038101906103d09190614516565b610d43565b6040516103e291906157a6565b60405180910390f35b61040560048036038101906104009190614718565b610d9e565b005b61040f610e21565b005b61042b60048036038101906104269190614683565b610e9b565b6040516104389190615415565b60405180910390f35b61045b60048036038101906104569190614823565b61104c565b604051610468919061546e565b60405180910390f35b61048b60048036038101906104869190614823565b61106b565b60405161049891906157a6565b60405180910390f35b6104a9611088565b6040516104b6919061546e565b60405180910390f35b6104d960048036038101906104d49190614331565b61109f565b005b6104f560048036038101906104f09190614608565b61113c565b005b6104ff6111be565b005b61051b6004803603810190610516919061484c565b611238565b6040516105299291906157c1565b60405180910390f35b61054c60048036038101906105479190614754565b6113f6565b6040516105599190615338565b60405180910390f35b61057c60048036038101906105779190614718565b611425565b604051610589919061546e565b60405180910390f35b6105ac60048036038101906105a79190614552565b61148f565b005b6105b66114b3565b6040516105c39190615489565b60405180910390f35b6105e660048036038101906105e191906144da565b6114ba565b005b61060260048036038101906105fd919061417e565b6114d0565b60405161060f91906157a6565b60405180910390f35b610632600480360381019061062d9190614823565b611520565b60405161063f91906157a6565b60405180910390f35b610662600480360381019061065d91906146ef565b61153d565b60405161066f91906157a6565b60405180910390f35b610680611561565b60405161068d9190615489565b60405180910390f35b6106b060048036038101906106ab9190614718565b611585565b005b6106ba6115ae565b6040516106c79190615489565b60405180910390f35b6106ea60048036038101906106e591906141a7565b6115d2565b6040516106f7919061546e565b60405180910390f35b61071a600480360381019061071591906142a2565b611666565b005b610736600480360381019061073191906145b9565b611707565b005b60008073ffffffffffffffffffffffffffffffffffffffff168373ffffffffffffffffffffffffffffffffffffffff1614156107a9576040517f08c379a00000000000000000000000000000000000000000000000000000000081526004016107a090615546565b60405180910390fd5b6002600083815260200190815260200160002060008473ffffffffffffffffffffffffffffffffffffffff1673ffffffffffffffffffffffffffffffffffffffff16815260200190815260200160002054905092915050565b600061080d826118b4565b9050919050565b6108286000801b61082361192e565b611425565b610867576040517f08c379a000000000000000000000000000000000000000000000000000000000815260040161085e90615766565b60405180910390fd5b61087081611936565b50565b60606004805461088290615b4d565b80601f01602080910402602001604051908101604052809291908181526020018280546108ae90615b4d565b80156108fb5780601f106108d0576101008083540402835291602001916108fb565b820191906000526020600020905b8154815290600101906020018083116108de57829003601f168201915b50505050509050919050565b60006109136006611950565b905090565b6109497f9f2df0fed2c77648de5860a4cc508cd0818c85b8b8a1ab4ceeef8d981c8956a661094461192e565b611425565b610988576040517f08c379a000000000000000000000000000000000000000000000000000000000815260040161097f90615666565b60405180910390fd5b61099484848484611965565b50505050565b6000825167ffffffffffffffff8111156109dd577f4e487b7100000000000000000000000000000000000000000000000000000000600052604160045260246000fd5b604051908082528060200260200182016040528015610a0b5781602001602082028036833780820191505090505b50905060005b8351811015610a8657610a24600a611bd0565b828281518110610a5d577f4e487b7100000000000000000000000000000000000000000000000000000000600052603260045260246000fd5b602002602001018181525050610a73600a611bde565b8080610a7e90615b7f565b915050610a11565b50610a9384828585610918565b50505050565b60006060610aa6856114d0565b91506000821480610ab75750818410155b15610b365781600067ffffffffffffffff811115610afe577f4e487b7100000000000000000000000000000000000000000000000000000000600052604160045260246000fd5b604051908082528060200260200182016040528015610b2c5781602001602082028036833780820191505090505b5091509150610c52565b6000610b568486610b47919061597f565b84611bf490919063ffffffff16565b90508481610b649190615a2f565b67ffffffffffffffff811115610ba3577f4e487b7100000000000000000000000000000000000000000000000000000000600052604160045260246000fd5b604051908082528060200260200182016040528015610bd15781602001602082028036833780820191505090505b50915060008590505b81811015610c4f57610bec8782610d43565b838783610bf99190615a2f565b81518110610c30577f4e487b7100000000000000000000000000000000000000000000000000000000600052603260045260246000fd5b6020026020010181815250508080610c4790615b7f565b915050610bda565b50505b935093915050565b6000806000838152602001908152602001600020600101549050919050565b610c8161192e565b73ffffffffffffffffffffffffffffffffffffffff168573ffffffffffffffffffffffffffffffffffffffff161480610cc75750610cc685610cc161192e565b6115d2565b5b610d06576040517f08c379a0000000000000000000000000000000000000000000000000000000008152600401610cfd90615606565b60405180910390fd5b610d138585858585611c0d565b5050505050565b610d2382610c5a565b610d3481610d2f61192e565b611f70565b610d3e838361200d565b505050565b6000610d9682600960008673ffffffffffffffffffffffffffffffffffffffff1673ffffffffffffffffffffffffffffffffffffffff16815260200190815260200160002061204190919063ffffffff16565b905092915050565b610da661192e565b73ffffffffffffffffffffffffffffffffffffffff168173ffffffffffffffffffffffffffffffffffffffff1614610e13576040517f08c379a0000000000000000000000000000000000000000000000000000000008152600401610e0a90615786565b60405180910390fd5b610e1d828261205b565b5050565b610e527f65d7a28e3265b37a6474929f336521b332c1681b933f6cb9f3376673440d862a610e4d61192e565b611425565b610e91576040517f08c379a0000000000000000000000000000000000000000000000000000000008152600401610e88906156a6565b60405180910390fd5b610e9961208f565b565b60608151835114610ee1576040517f08c379a0000000000000000000000000000000000000000000000000000000008152600401610ed890615706565b60405180910390fd5b6000835167ffffffffffffffff811115610f24577f4e487b7100000000000000000000000000000000000000000000000000000000600052604160045260246000fd5b604051908082528060200260200182016040528015610f525781602001602082028036833780820191505090505b50905060005b845181101561104157610feb858281518110610f9d577f4e487b7100000000000000000000000000000000000000000000000000000000600052603260045260246000fd5b6020026020010151858381518110610fde577f4e487b7100000000000000000000000000000000000000000000000000000000600052603260045260246000fd5b6020026020010151610738565b828281518110611024577f4e487b7100000000000000000000000000000000000000000000000000000000600052603260045260246000fd5b6020026020010181815250508061103a90615b7f565b9050610f58565b508091505092915050565b6000806008600084815260200190815260200160002054119050919050565b600061108182600661204190919063ffffffff16565b9050919050565b6000600560009054906101000a900460ff16905090565b6110a761192e565b73ffffffffffffffffffffffffffffffffffffffff168373ffffffffffffffffffffffffffffffffffffffff1614806110ed57506110ec836110e761192e565b6115d2565b5b61112c576040517f08c379a0000000000000000000000000000000000000000000000000000000008152600401611123906155a6565b60405180910390fd5b611137838383612131565b505050565b61116d7f9f2df0fed2c77648de5860a4cc508cd0818c85b8b8a1ab4ceeef8d981c8956a661116861192e565b611425565b6111ac576040517f08c379a00000000000000000000000000000000000000000000000000000000081526004016111a390615666565b60405180910390fd5b6111b884848484612430565b50505050565b6111ef7f65d7a28e3265b37a6474929f336521b332c1681b933f6cb9f3376673440d862a6111ea61192e565b611425565b61122e576040517f08c379a0000000000000000000000000000000000000000000000000000000008152600401611225906156c6565b60405180910390fd5b6112366125c7565b565b60006060611244610907565b915060008214806112555750818410155b156112d45781600067ffffffffffffffff81111561129c577f4e487b7100000000000000000000000000000000000000000000000000000000600052604160045260246000fd5b6040519080825280602002602001820160405280156112ca5781602001602082028036833780820191505090505b50915091506113ef565b60006112f484866112e5919061597f565b84611bf490919063ffffffff16565b905084816113029190615a2f565b67ffffffffffffffff811115611341577f4e487b7100000000000000000000000000000000000000000000000000000000600052604160045260246000fd5b60405190808252806020026020018201604052801561136f5781602001602082028036833780820191505090505b50915060008590505b818110156113ec576113898161106b565b8387836113969190615a2f565b815181106113cd577f4e487b7100000000000000000000000000000000000000000000000000000000600052603260045260246000fd5b60200260200101818152505080806113e490615b7f565b915050611378565b50505b9250929050565b600061141d826001600086815260200190815260200160002061266a90919063ffffffff16565b905092915050565b600080600084815260200190815260200160002060000160008373ffffffffffffffffffffffffffffffffffffffff1673ffffffffffffffffffffffffffffffffffffffff16815260200190815260200160002060009054906101000a900460ff16905092915050565b6114a48361149d600a611bd0565b848461113c565b6114ae600a611bde565b505050565b6000801b81565b6114cc6114c561192e565b8383612684565b5050565b6000611519600960008473ffffffffffffffffffffffffffffffffffffffff1673ffffffffffffffffffffffffffffffffffffffff168152602001908152602001600020611950565b9050919050565b600060086000838152602001908152602001600020549050919050565b600061155a600160008481526020019081526020016000206127f1565b9050919050565b7f9f2df0fed2c77648de5860a4cc508cd0818c85b8b8a1ab4ceeef8d981c8956a681565b61158e82610c5a565b61159f8161159a61192e565b611f70565b6115a9838361205b565b505050565b7f65d7a28e3265b37a6474929f336521b332c1681b933f6cb9f3376673440d862a81565b6000600360008473ffffffffffffffffffffffffffffffffffffffff1673ffffffffffffffffffffffffffffffffffffffff16815260200190815260200160002060008373ffffffffffffffffffffffffffffffffffffffff1673ffffffffffffffffffffffffffffffffffffffff16815260200190815260200160002060009054906101000a900460ff16905092915050565b61166e61192e565b73ffffffffffffffffffffffffffffffffffffffff168573ffffffffffffffffffffffffffffffffffffffff1614806116b457506116b3856116ae61192e565b6115d2565b5b6116f3576040517f08c379a00000000000000000000000000000000000000000000000000000000081526004016116ea906155a6565b60405180910390fd5b6117008585858585612806565b5050505050565b61170f61192e565b73ffffffffffffffffffffffffffffffffffffffff168373ffffffffffffffffffffffffffffffffffffffff16148061175557506117548361174f61192e565b6115d2565b5b611794576040517f08c379a000000000000000000000000000000000000000000000000000000000815260040161178b906155a6565b60405180910390fd5b61179f838383612a8b565b505050565b6117ae8282611425565b61188057600160008084815260200190815260200160002060000160008373ffffffffffffffffffffffffffffffffffffffff1673ffffffffffffffffffffffffffffffffffffffff16815260200190815260200160002060006101000a81548160ff02191690831515021790555061182561192e565b73ffffffffffffffffffffffffffffffffffffffff168173ffffffffffffffffffffffffffffffffffffffff16837f2f8788117e7eff1d82e926ec794901d17c78024a50270940304540a733656f0d60405160405180910390a45b5050565b60006118ac836000018373ffffffffffffffffffffffffffffffffffffffff1660001b612caa565b905092915050565b60007f3dfc30a9000000000000000000000000000000000000000000000000000000007bffffffffffffffffffffffffffffffffffffffffffffffffffffffff1916827bffffffffffffffffffffffffffffffffffffffffffffffffffffffff19161480611927575061192682612d1a565b5b9050919050565b600033905090565b806004908051906020019061194c929190613e61565b5050565b600061195e82600001612d2c565b9050919050565b600073ffffffffffffffffffffffffffffffffffffffff168473ffffffffffffffffffffffffffffffffffffffff1614156119d5576040517f08c379a00000000000000000000000000000000000000000000000000000000081526004016119cc90615746565b60405180910390fd5b8151835114611a19576040517f08c379a0000000000000000000000000000000000000000000000000000000008152600401611a1090615726565b60405180910390fd5b6000611a2361192e565b9050611a3481600087878787612d3d565b60005b8451811015611b3a57838181518110611a79577f4e487b7100000000000000000000000000000000000000000000000000000000600052603260045260246000fd5b602002602001015160026000878481518110611abe577f4e487b7100000000000000000000000000000000000000000000000000000000600052603260045260246000fd5b6020026020010151815260200190815260200160002060008873ffffffffffffffffffffffffffffffffffffffff1673ffffffffffffffffffffffffffffffffffffffff1681526020019081526020016000206000828254611b20919061597f565b925050819055508080611b3290615b7f565b915050611a37565b508473ffffffffffffffffffffffffffffffffffffffff16600073ffffffffffffffffffffffffffffffffffffffff168273ffffffffffffffffffffffffffffffffffffffff167f4a39dc06d4c0dbc64b70af90fd698a233a518aa5d07e595d983b8c0526c8f7fb8787604051611bb2929190615437565b60405180910390a4611bc981600087878787612df6565b5050505050565b600081600001549050919050565b6001816000016000828254019250508190555050565b6000818310611c035781611c05565b825b905092915050565b8151835114611c51576040517f08c379a0000000000000000000000000000000000000000000000000000000008152600401611c4890615726565b60405180910390fd5b600073ffffffffffffffffffffffffffffffffffffffff168473ffffffffffffffffffffffffffffffffffffffff161415611cc1576040517f08c379a0000000000000000000000000000000000000000000000000000000008152600401611cb8906155e6565b60405180910390fd5b6000611ccb61192e565b9050611cdb818787878787612d3d565b60005b8451811015611edb576000858281518110611d22577f4e487b7100000000000000000000000000000000000000000000000000000000600052603260045260246000fd5b602002602001015190506000858381518110611d67577f4e487b7100000000000000000000000000000000000000000000000000000000600052603260045260246000fd5b6020026020010151905060006002600084815260200190815260200160002060008b73ffffffffffffffffffffffffffffffffffffffff1673ffffffffffffffffffffffffffffffffffffffff16815260200190815260200160002054905081811015611e09576040517f08c379a0000000000000000000000000000000000000000000000000000000008152600401611e0090615686565b60405180910390fd5b8181036002600085815260200190815260200160002060008c73ffffffffffffffffffffffffffffffffffffffff1673ffffffffffffffffffffffffffffffffffffffff16815260200190815260200160002081905550816002600085815260200190815260200160002060008b73ffffffffffffffffffffffffffffffffffffffff1673ffffffffffffffffffffffffffffffffffffffff1681526020019081526020016000206000828254611ec0919061597f565b9250508190555050505080611ed490615b7f565b9050611cde565b508473ffffffffffffffffffffffffffffffffffffffff168673ffffffffffffffffffffffffffffffffffffffff168273ffffffffffffffffffffffffffffffffffffffff167f4a39dc06d4c0dbc64b70af90fd698a233a518aa5d07e595d983b8c0526c8f7fb8787604051611f52929190615437565b60405180910390a4611f68818787878787612df6565b505050505050565b611f7a8282611425565b61200957611f9f8173ffffffffffffffffffffffffffffffffffffffff166014612fc6565b611fad8360001c6020612fc6565b604051602001611fbe9291906152fe565b6040516020818303038152906040526040517f08c379a000000000000000000000000000000000000000000000000000000000815260040161200091906154a4565b60405180910390fd5b5050565b61201782826117a4565b61203c816001600085815260200190815260200160002061188490919063ffffffff16565b505050565b600061205083600001836132c0565b60001c905092915050565b6120658282613311565b61208a81600160008581526020019081526020016000206133f290919063ffffffff16565b505050565b612097611088565b6120d6576040517f08c379a00000000000000000000000000000000000000000000000000000000081526004016120cd90615526565b60405180910390fd5b6000600560006101000a81548160ff0219169083151502179055507f5db9ee0a495bf2e6ff9c91a7834c1ba4fdd244a5e8aa4e537bd38aeae4b073aa61211a61192e565b6040516121279190615338565b60405180910390a1565b600073ffffffffffffffffffffffffffffffffffffffff168373ffffffffffffffffffffffffffffffffffffffff1614156121a1576040517f08c379a000000000000000000000000000000000000000000000000000000000815260040161219890615646565b60405180910390fd5b80518251146121e5576040517f08c379a00000000000000000000000000000000000000000000000000000000081526004016121dc90615726565b60405180910390fd5b60006121ef61192e565b905061220f81856000868660405180602001604052806000815250612d3d565b60005b83518110156123aa576000848281518110612256577f4e487b7100000000000000000000000000000000000000000000000000000000600052603260045260246000fd5b60200260200101519050600084838151811061229b577f4e487b7100000000000000000000000000000000000000000000000000000000600052603260045260246000fd5b6020026020010151905060006002600084815260200190815260200160002060008973ffffffffffffffffffffffffffffffffffffffff1673ffffffffffffffffffffffffffffffffffffffff1681526020019081526020016000205490508181101561233d576040517f08c379a000000000000000000000000000000000000000000000000000000000815260040161233490615566565b60405180910390fd5b8181036002600085815260200190815260200160002060008a73ffffffffffffffffffffffffffffffffffffffff1673ffffffffffffffffffffffffffffffffffffffff1681526020019081526020016000208190555050505080806123a290615b7f565b915050612212565b50600073ffffffffffffffffffffffffffffffffffffffff168473ffffffffffffffffffffffffffffffffffffffff168273ffffffffffffffffffffffffffffffffffffffff167f4a39dc06d4c0dbc64b70af90fd698a233a518aa5d07e595d983b8c0526c8f7fb8686604051612422929190615437565b60405180910390a450505050565b600073ffffffffffffffffffffffffffffffffffffffff168473ffffffffffffffffffffffffffffffffffffffff1614156124a0576040517f08c379a000000000000000000000000000000000000000000000000000000000815260040161249790615746565b60405180910390fd5b60006124aa61192e565b90506124cb816000876124bc88613422565b6124c588613422565b87612d3d565b826002600086815260200190815260200160002060008773ffffffffffffffffffffffffffffffffffffffff1673ffffffffffffffffffffffffffffffffffffffff168152602001908152602001600020600082825461252b919061597f565b925050819055508473ffffffffffffffffffffffffffffffffffffffff16600073ffffffffffffffffffffffffffffffffffffffff168273ffffffffffffffffffffffffffffffffffffffff167fc3d58168c5ae7397731d063d5bbf3d657854427343f4c083240f7aacaa2d0f6287876040516125a99291906157f1565b60405180910390a46125c0816000878787876134e8565b5050505050565b6125cf611088565b1561260f576040517f08c379a0000000000000000000000000000000000000000000000000000000008152600401612606906155c6565b60405180910390fd5b6001600560006101000a81548160ff0219169083151502179055507f62e78cea01bee320cd4e420270b5ea74000d11b0c9f74754ebdbfc544b05a25861265361192e565b6040516126609190615338565b60405180910390a1565b600061267983600001836132c0565b60001c905092915050565b8173ffffffffffffffffffffffffffffffffffffffff168373ffffffffffffffffffffffffffffffffffffffff1614156126f3576040517f08c379a00000000000000000000000000000000000000000000000000000000081526004016126ea906156e6565b60405180910390fd5b80600360008573ffffffffffffffffffffffffffffffffffffffff1673ffffffffffffffffffffffffffffffffffffffff16815260200190815260200160002060008473ffffffffffffffffffffffffffffffffffffffff1673ffffffffffffffffffffffffffffffffffffffff16815260200190815260200160002060006101000a81548160ff0219169083151502179055508173ffffffffffffffffffffffffffffffffffffffff168373ffffffffffffffffffffffffffffffffffffffff167f17307eab39ab6107e8899845ad3d59bd9653f200f220920489ca2b5937696c31836040516127e4919061546e565b60405180910390a3505050565b60006127ff82600001612d2c565b9050919050565b600073ffffffffffffffffffffffffffffffffffffffff168473ffffffffffffffffffffffffffffffffffffffff161415612876576040517f08c379a000000000000000000000000000000000000000000000000000000000815260040161286d906155e6565b60405180910390fd5b600061288061192e565b90506128a081878761289188613422565b61289a88613422565b87612d3d565b60006002600086815260200190815260200160002060008873ffffffffffffffffffffffffffffffffffffffff1673ffffffffffffffffffffffffffffffffffffffff16815260200190815260200160002054905083811015612938576040517f08c379a000000000000000000000000000000000000000000000000000000000815260040161292f90615686565b60405180910390fd5b8381036002600087815260200190815260200160002060008973ffffffffffffffffffffffffffffffffffffffff1673ffffffffffffffffffffffffffffffffffffffff16815260200190815260200160002081905550836002600087815260200190815260200160002060008873ffffffffffffffffffffffffffffffffffffffff1673ffffffffffffffffffffffffffffffffffffffff16815260200190815260200160002060008282546129ef919061597f565b925050819055508573ffffffffffffffffffffffffffffffffffffffff168773ffffffffffffffffffffffffffffffffffffffff168373ffffffffffffffffffffffffffffffffffffffff167fc3d58168c5ae7397731d063d5bbf3d657854427343f4c083240f7aacaa2d0f628888604051612a6c9291906157f1565b60405180910390a4612a828288888888886134e8565b50505050505050565b600073ffffffffffffffffffffffffffffffffffffffff168373ffffffffffffffffffffffffffffffffffffffff161415612afb576040517f08c379a0000000000000000000000000000000000000000000000000000000008152600401612af290615646565b60405180910390fd5b6000612b0561192e565b9050612b3581856000612b1787613422565b612b2087613422565b60405180602001604052806000815250612d3d565b60006002600085815260200190815260200160002060008673ffffffffffffffffffffffffffffffffffffffff1673ffffffffffffffffffffffffffffffffffffffff16815260200190815260200160002054905082811015612bcd576040517f08c379a0000000000000000000000000000000000000000000000000000000008152600401612bc490615566565b60405180910390fd5b8281036002600086815260200190815260200160002060008773ffffffffffffffffffffffffffffffffffffffff1673ffffffffffffffffffffffffffffffffffffffff16815260200190815260200160002081905550600073ffffffffffffffffffffffffffffffffffffffff168573ffffffffffffffffffffffffffffffffffffffff168373ffffffffffffffffffffffffffffffffffffffff167fc3d58168c5ae7397731d063d5bbf3d657854427343f4c083240f7aacaa2d0f628787604051612c9b9291906157f1565b60405180910390a45050505050565b6000612cb683836136b8565b612d0f578260000182908060018154018082558091505060019003906000526020600020016000909190919091505582600001805490508360010160008481526020019081526020016000208190555060019050612d14565b600090505b92915050565b6000612d25826136db565b9050919050565b600081600001805490509050919050565b60005b8251811015612ddf576000838281518110612d84577f4e487b7100000000000000000000000000000000000000000000000000000000600052603260045260246000fd5b602002602001015111612dcc576040517f08c379a0000000000000000000000000000000000000000000000000000000008152600401612dc390615626565b60405180910390fd5b8080612dd790615b7f565b915050612d40565b50612dee8686868686866137bd565b505050505050565b612e158473ffffffffffffffffffffffffffffffffffffffff16613aba565b15612fbe578373ffffffffffffffffffffffffffffffffffffffff1663bc197c8187878686866040518663ffffffff1660e01b8152600401612e5b959493929190615353565b602060405180830381600087803b158015612e7557600080fd5b505af1925050508015612ea657506040513d601f19601f82011682018060405250810190612ea391906147b9565b60015b612f3557612eb2615c73565b80612ebd5750612efa565b806040517f08c379a0000000000000000000000000000000000000000000000000000000008152600401612ef191906154a4565b60405180910390fd5b6040517f08c379a0000000000000000000000000000000000000000000000000000000008152600401612f2c906154c6565b60405180910390fd5b63bc197c8160e01b7bffffffffffffffffffffffffffffffffffffffffffffffffffffffff1916817bffffffffffffffffffffffffffffffffffffffffffffffffffffffff191614612fbc576040517f08c379a0000000000000000000000000000000000000000000000000000000008152600401612fb390615506565b60405180910390fd5b505b505050505050565b606060006002836002612fd991906159d5565b612fe3919061597f565b67ffffffffffffffff811115613022577f4e487b7100000000000000000000000000000000000000000000000000000000600052604160045260246000fd5b6040519080825280601f01601f1916602001820160405280156130545781602001600182028036833780820191505090505b5090507f3000000000000000000000000000000000000000000000000000000000000000816000815181106130b2577f4e487b7100000000000000000000000000000000000000000000000000000000600052603260045260246000fd5b60200101907effffffffffffffffffffffffffffffffffffffffffffffffffffffffffffff1916908160001a9053507f78000000000000000000000000000000000000000000000000000000000000008160018151811061313c577f4e487b7100000000000000000000000000000000000000000000000000000000600052603260045260246000fd5b60200101907effffffffffffffffffffffffffffffffffffffffffffffffffffffffffffff1916908160001a9053506000600184600261317c91906159d5565b613186919061597f565b90505b6001811115613272577f3031323334353637383961626364656600000000000000000000000000000000600f8616601081106131ee577f4e487b7100000000000000000000000000000000000000000000000000000000600052603260045260246000fd5b1a60f81b82828151811061322b577f4e487b7100000000000000000000000000000000000000000000000000000000600052603260045260246000fd5b60200101907effffffffffffffffffffffffffffffffffffffffffffffffffffffffffffff1916908160001a905350600485901c94508061326b90615b23565b9050613189565b50600084146132b6576040517f08c379a00000000000000000000000000000000000000000000000000000000081526004016132ad906154e6565b60405180910390fd5b8091505092915050565b60008260000182815481106132fe577f4e487b7100000000000000000000000000000000000000000000000000000000600052603260045260246000fd5b9060005260206000200154905092915050565b61331b8282611425565b156133ee57600080600084815260200190815260200160002060000160008373ffffffffffffffffffffffffffffffffffffffff1673ffffffffffffffffffffffffffffffffffffffff16815260200190815260200160002060006101000a81548160ff02191690831515021790555061339361192e565b73ffffffffffffffffffffffffffffffffffffffff168173ffffffffffffffffffffffffffffffffffffffff16837ff6391f5c32d9c69d2a47ea670b442974b53935d1edc7fd64eb21e047a839171b60405160405180910390a45b5050565b600061341a836000018373ffffffffffffffffffffffffffffffffffffffff1660001b613acd565b905092915050565b60606000600167ffffffffffffffff811115613467577f4e487b7100000000000000000000000000000000000000000000000000000000600052604160045260246000fd5b6040519080825280602002602001820160405280156134955781602001602082028036833780820191505090505b50905082816000815181106134d3577f4e487b7100000000000000000000000000000000000000000000000000000000600052603260045260246000fd5b60200260200101818152505080915050919050565b6135078473ffffffffffffffffffffffffffffffffffffffff16613aba565b156136b0578373ffffffffffffffffffffffffffffffffffffffff1663f23a6e6187878686866040518663ffffffff1660e01b815260040161354d9594939291906153bb565b602060405180830381600087803b15801561356757600080fd5b505af192505050801561359857506040513d601f19601f8201168201806040525081019061359591906147b9565b60015b613627576135a4615c73565b806135af57506135ec565b806040517f08c379a00000000000000000000000000000000000000000000000000000000081526004016135e391906154a4565b60405180910390fd5b6040517f08c379a000000000000000000000000000000000000000000000000000000000815260040161361e906154c6565b60405180910390fd5b63f23a6e6160e01b7bffffffffffffffffffffffffffffffffffffffffffffffffffffffff1916817bffffffffffffffffffffffffffffffffffffffffffffffffffffffff1916146136ae576040517f08c379a00000000000000000000000000000000000000000000000000000000081526004016136a590615506565b60405180910390fd5b505b505050505050565b600080836001016000848152602001908152602001600020541415905092915050565b60007fd9b67a26000000000000000000000000000000000000000000000000000000007bffffffffffffffffffffffffffffffffffffffffffffffffffffffff1916827bffffffffffffffffffffffffffffffffffffffffffffffffffffffff191614806137a657507f0e89341c000000000000000000000000000000000000000000000000000000007bffffffffffffffffffffffffffffffffffffffffffffffffffffffff1916827bffffffffffffffffffffffffffffffffffffffffffffffffffffffff1916145b806137b657506137b582613c53565b5b9050919050565b6137cb868686868686613ccd565b60005b8351811015613ab1576000848281518110613812577f4e487b7100000000000000000000000000000000000000000000000000000000600052603260045260246000fd5b602002602001015190506000848381518110613857577f4e487b7100000000000000000000000000000000000000000000000000000000600052603260045260246000fd5b60200260200101519050600081148061389b57508673ffffffffffffffffffffffffffffffffffffffff168873ffffffffffffffffffffffffffffffffffffffff16145b156138a7575050613aa0565b600073ffffffffffffffffffffffffffffffffffffffff168873ffffffffffffffffffffffffffffffffffffffff16141561393c57600060086000848152602001908152602001600020549050600081141561391357613911836006613ce390919063ffffffff16565b505b818161391f919061597f565b6008600085815260200190815260200160002081905550506139a1565b806139478984610738565b14156139a05761399e82600960008b73ffffffffffffffffffffffffffffffffffffffff1673ffffffffffffffffffffffffffffffffffffffff168152602001908152602001600020613cfd90919063ffffffff16565b505b5b600073ffffffffffffffffffffffffffffffffffffffff168773ffffffffffffffffffffffffffffffffffffffff161415613a3757806008600084815260200190815260200160002060008282546139f99190615a2f565b92505081905550600060086000848152602001908152602001600020541415613a3257613a30826006613cfd90919063ffffffff16565b505b613a9d565b6000613a438884610738565b1415613a9c57613a9a82600960008a73ffffffffffffffffffffffffffffffffffffffff1673ffffffffffffffffffffffffffffffffffffffff168152602001908152602001600020613ce390919063ffffffff16565b505b5b50505b80613aaa90615b7f565b90506137ce565b50505050505050565b600080823b905060008111915050919050565b60008083600101600084815260200190815260200160002054905060008114613c47576000600182613aff9190615a2f565b9050600060018660000180549050613b179190615a2f565b9050818114613bd2576000866000018281548110613b5e577f4e487b7100000000000000000000000000000000000000000000000000000000600052603260045260246000fd5b9060005260206000200154905080876000018481548110613ba8577f4e487b7100000000000000000000000000000000000000000000000000000000600052603260045260246000fd5b90600052602060002001819055508387600101600083815260200190815260200160002081905550505b85600001805480613c0c577f4e487b7100000000000000000000000000000000000000000000000000000000600052603160045260246000fd5b600190038181906000526020600020016000905590558560010160008681526020019081526020016000206000905560019350505050613c4d565b60009150505b92915050565b60007f5a05180f000000000000000000000000000000000000000000000000000000007bffffffffffffffffffffffffffffffffffffffffffffffffffffffff1916827bffffffffffffffffffffffffffffffffffffffffffffffffffffffff19161480613cc65750613cc582613d17565b5b9050919050565b613cdb868686868686613d91565b505050505050565b6000613cf5836000018360001b612caa565b905092915050565b6000613d0f836000018360001b613acd565b905092915050565b60007f7965db0b000000000000000000000000000000000000000000000000000000007bffffffffffffffffffffffffffffffffffffffffffffffffffffffff1916827bffffffffffffffffffffffffffffffffffffffffffffffffffffffff19161480613d8a5750613d8982613def565b5b9050919050565b613d9f868686868686613e59565b613da7611088565b15613de7576040517f08c379a0000000000000000000000000000000000000000000000000000000008152600401613dde90615586565b60405180910390fd5b505050505050565b60007f01ffc9a7000000000000000000000000000000000000000000000000000000007bffffffffffffffffffffffffffffffffffffffffffffffffffffffff1916827bffffffffffffffffffffffffffffffffffffffffffffffffffffffff1916149050919050565b505050505050565b828054613e6d90615b4d565b90600052602060002090601f016020900481019282613e8f5760008555613ed6565b82601f10613ea857805160ff1916838001178555613ed6565b82800160010185558215613ed6579182015b82811115613ed5578251825591602001919060010190613eba565b5b509050613ee39190613ee7565b5090565b5b80821115613f00576000816000905550600101613ee8565b5090565b6000613f17613f128461584b565b61581a565b90508083825260208201905082856020860282011115613f3657600080fd5b60005b85811015613f665781613f4c8882614058565b845260208401935060208301925050600181019050613f39565b5050509392505050565b6000613f83613f7e84615877565b61581a565b90508083825260208201905082856020860282011115613fa257600080fd5b60005b85811015613fd25781613fb88882614169565b845260208401935060208301925050600181019050613fa5565b5050509392505050565b6000613fef613fea846158a3565b61581a565b90508281526020810184848401111561400757600080fd5b614012848285615ae1565b509392505050565b600061402d614028846158d3565b61581a565b90508281526020810184848401111561404557600080fd5b614050848285615ae1565b509392505050565b60008135905061406781615d29565b92915050565b600082601f83011261407e57600080fd5b813561408e848260208601613f04565b91505092915050565b600082601f8301126140a857600080fd5b81356140b8848260208601613f70565b91505092915050565b6000813590506140d081615d40565b92915050565b6000813590506140e581615d57565b92915050565b6000813590506140fa81615d6e565b92915050565b60008151905061410f81615d6e565b92915050565b600082601f83011261412657600080fd5b8135614136848260208601613fdc565b91505092915050565b600082601f83011261415057600080fd5b813561416084826020860161401a565b91505092915050565b60008135905061417881615d85565b92915050565b60006020828403121561419057600080fd5b600061419e84828501614058565b91505092915050565b600080604083850312156141ba57600080fd5b60006141c885828601614058565b92505060206141d985828601614058565b9150509250929050565b600080600080600060a086880312156141fb57600080fd5b600061420988828901614058565b955050602061421a88828901614058565b945050604086013567ffffffffffffffff81111561423757600080fd5b61424388828901614097565b935050606086013567ffffffffffffffff81111561426057600080fd5b61426c88828901614097565b925050608086013567ffffffffffffffff81111561428957600080fd5b61429588828901614115565b9150509295509295909350565b600080600080600060a086880312156142ba57600080fd5b60006142c888828901614058565b95505060206142d988828901614058565b94505060406142ea88828901614169565b93505060606142fb88828901614169565b925050608086013567ffffffffffffffff81111561431857600080fd5b61432488828901614115565b9150509295509295909350565b60008060006060848603121561434657600080fd5b600061435486828701614058565b935050602084013567ffffffffffffffff81111561437157600080fd5b61437d86828701614097565b925050604084013567ffffffffffffffff81111561439a57600080fd5b6143a686828701614097565b9150509250925092565b600080600080608085870312156143c657600080fd5b60006143d487828801614058565b945050602085013567ffffffffffffffff8111156143f157600080fd5b6143fd87828801614097565b935050604085013567ffffffffffffffff81111561441a57600080fd5b61442687828801614097565b925050606085013567ffffffffffffffff81111561444357600080fd5b61444f87828801614115565b91505092959194509250565b60008060006060848603121561447057600080fd5b600061447e86828701614058565b935050602084013567ffffffffffffffff81111561449b57600080fd5b6144a786828701614097565b925050604084013567ffffffffffffffff8111156144c457600080fd5b6144d086828701614115565b9150509250925092565b600080604083850312156144ed57600080fd5b60006144fb85828601614058565b925050602061450c858286016140c1565b9150509250929050565b6000806040838503121561452957600080fd5b600061453785828601614058565b925050602061454885828601614169565b9150509250929050565b60008060006060848603121561456757600080fd5b600061457586828701614058565b935050602061458686828701614169565b925050604084013567ffffffffffffffff8111156145a357600080fd5b6145af86828701614115565b9150509250925092565b6000806000606084860312156145ce57600080fd5b60006145dc86828701614058565b93505060206145ed86828701614169565b92505060406145fe86828701614169565b9150509250925092565b6000806000806080858703121561461e57600080fd5b600061462c87828801614058565b945050602061463d87828801614169565b935050604061464e87828801614169565b925050606085013567ffffffffffffffff81111561466b57600080fd5b61467787828801614115565b91505092959194509250565b6000806040838503121561469657600080fd5b600083013567ffffffffffffffff8111156146b057600080fd5b6146bc8582860161406d565b925050602083013567ffffffffffffffff8111156146d957600080fd5b6146e585828601614097565b9150509250929050565b60006020828403121561470157600080fd5b600061470f848285016140d6565b91505092915050565b6000806040838503121561472b57600080fd5b6000614739858286016140d6565b925050602061474a85828601614058565b9150509250929050565b6000806040838503121561476757600080fd5b6000614775858286016140d6565b925050602061478685828601614169565b9150509250929050565b6000602082840312156147a257600080fd5b60006147b0848285016140eb565b91505092915050565b6000602082840312156147cb57600080fd5b60006147d984828501614100565b91505092915050565b6000602082840312156147f457600080fd5b600082013567ffffffffffffffff81111561480e57600080fd5b61481a8482850161413f565b91505092915050565b60006020828403121561483557600080fd5b600061484384828501614169565b91505092915050565b6000806040838503121561485f57600080fd5b600061486d85828601614169565b925050602061487e85828601614169565b9150509250929050565b600061489483836152e0565b60208301905092915050565b6148a981615a63565b82525050565b60006148ba82615913565b6148c48185615941565b93506148cf83615903565b8060005b838110156149005781516148e78882614888565b97506148f283615934565b9250506001810190506148d3565b5085935050505092915050565b61491681615a75565b82525050565b61492581615a81565b82525050565b60006149368261591e565b6149408185615952565b9350614950818560208601615af0565b61495981615c55565b840191505092915050565b600061496f82615929565b6149798185615963565b9350614989818560208601615af0565b61499281615c55565b840191505092915050565b60006149a882615929565b6149b28185615974565b93506149c2818560208601615af0565b80840191505092915050565b60006149db603483615963565b91507f455243313135353a207472616e7366657220746f206e6f6e204552433131353560008301527f526563656976657220696d706c656d656e7465720000000000000000000000006020830152604082019050919050565b6000614a41602083615963565b91507f537472696e67733a20686578206c656e67746820696e73756666696369656e746000830152602082019050919050565b6000614a81602883615963565b91507f455243313135353a204552433131353552656365697665722072656a6563746560008301527f6420746f6b656e730000000000000000000000000000000000000000000000006020830152604082019050919050565b6000614ae7601483615963565b91507f5061757361626c653a206e6f74207061757365640000000000000000000000006000830152602082019050919050565b6000614b27602b83615963565b91507f455243313135353a2062616c616e636520717565727920666f7220746865207a60008301527f65726f20616464726573730000000000000000000000000000000000000000006020830152604082019050919050565b6000614b8d602483615963565b91507f455243313135353a206275726e20616d6f756e7420657863656564732062616c60008301527f616e6365000000000000000000000000000000000000000000000000000000006020830152604082019050919050565b6000614bf3602c83615963565b91507f455243313135355061757361626c653a20746f6b656e207472616e736665722060008301527f7768696c652070617573656400000000000000000000000000000000000000006020830152604082019050919050565b6000614c59602983615963565b91507f455243313135353a2063616c6c6572206973206e6f74206f776e6572206e6f7260008301527f20617070726f76656400000000000000000000000000000000000000000000006020830152604082019050919050565b6000614cbf601083615963565b91507f5061757361626c653a20706175736564000000000000000000000000000000006000830152602082019050919050565b6000614cff602583615963565b91507f455243313135353a207472616e7366657220746f20746865207a65726f20616460008301527f64726573730000000000000000000000000000000000000000000000000000006020830152604082019050919050565b6000614d65603283615963565b91507f455243313135353a207472616e736665722063616c6c6572206973206e6f742060008301527f6f776e6572206e6f7220617070726f76656400000000000000000000000000006020830152604082019050919050565b6000614dcb601683615963565b91507f5072657365743a20616d6f756e74206973207a65726f000000000000000000006000830152602082019050919050565b6000614e0b602383615963565b91507f455243313135353a206275726e2066726f6d20746865207a65726f206164647260008301527f65737300000000000000000000000000000000000000000000000000000000006020830152604082019050919050565b6000614e71603883615963565b91507f455243313135355072657365744d696e7465725061757365723a206d7573742060008301527f68617665206d696e74657220726f6c6520746f206d696e7400000000000000006020830152604082019050919050565b6000614ed7602a83615963565b91507f455243313135353a20696e73756666696369656e742062616c616e636520666f60008301527f72207472616e73666572000000000000000000000000000000000000000000006020830152604082019050919050565b6000614f3d603b83615963565b91507f455243313135355072657365744d696e7465725061757365723a206d7573742060008301527f686176652070617573657220726f6c6520746f20756e706175736500000000006020830152604082019050919050565b6000614fa3603983615963565b91507f455243313135355072657365744d696e7465725061757365723a206d7573742060008301527f686176652070617573657220726f6c6520746f207061757365000000000000006020830152604082019050919050565b6000615009601783615974565b91507f416363657373436f6e74726f6c3a206163636f756e74200000000000000000006000830152601782019050919050565b6000615049602983615963565b91507f455243313135353a2073657474696e6720617070726f76616c2073746174757360008301527f20666f722073656c6600000000000000000000000000000000000000000000006020830152604082019050919050565b60006150af602983615963565b91507f455243313135353a206163636f756e747320616e6420696473206c656e67746860008301527f206d69736d6174636800000000000000000000000000000000000000000000006020830152604082019050919050565b6000615115602883615963565b91507f455243313135353a2069647320616e6420616d6f756e7473206c656e6774682060008301527f6d69736d617463680000000000000000000000000000000000000000000000006020830152604082019050919050565b600061517b602183615963565b91507f455243313135353a206d696e7420746f20746865207a65726f2061646472657360008301527f73000000000000000000000000000000000000000000000000000000000000006020830152604082019050919050565b60006151e1602783615963565b91507f5072657365743a206d75737420686176652061646d696e20726f6c6520746f2060008301527f73657420555249000000000000000000000000000000000000000000000000006020830152604082019050919050565b6000615247601183615974565b91507f206973206d697373696e6720726f6c65200000000000000000000000000000006000830152601182019050919050565b6000615287602f83615963565b91507f416363657373436f6e74726f6c3a2063616e206f6e6c792072656e6f756e636560008301527f20726f6c657320666f722073656c6600000000000000000000000000000000006020830152604082019050919050565b6152e981615ad7565b82525050565b6152f881615ad7565b82525050565b600061530982614ffc565b9150615315828561499d565b91506153208261523a565b915061532c828461499d565b91508190509392505050565b600060208201905061534d60008301846148a0565b92915050565b600060a08201905061536860008301886148a0565b61537560208301876148a0565b818103604083015261538781866148af565b9050818103606083015261539b81856148af565b905081810360808301526153af818461492b565b90509695505050505050565b600060a0820190506153d060008301886148a0565b6153dd60208301876148a0565b6153ea60408301866152ef565b6153f760608301856152ef565b8181036080830152615409818461492b565b90509695505050505050565b6000602082019050818103600083015261542f81846148af565b905092915050565b6000604082019050818103600083015261545181856148af565b9050818103602083015261546581846148af565b90509392505050565b6000602082019050615483600083018461490d565b92915050565b600060208201905061549e600083018461491c565b92915050565b600060208201905081810360008301526154be8184614964565b905092915050565b600060208201905081810360008301526154df816149ce565b9050919050565b600060208201905081810360008301526154ff81614a34565b9050919050565b6000602082019050818103600083015261551f81614a74565b9050919050565b6000602082019050818103600083015261553f81614ada565b9050919050565b6000602082019050818103600083015261555f81614b1a565b9050919050565b6000602082019050818103600083015261557f81614b80565b9050919050565b6000602082019050818103600083015261559f81614be6565b9050919050565b600060208201905081810360008301526155bf81614c4c565b9050919050565b600060208201905081810360008301526155df81614cb2565b9050919050565b600060208201905081810360008301526155ff81614cf2565b9050919050565b6000602082019050818103600083015261561f81614d58565b9050919050565b6000602082019050818103600083015261563f81614dbe565b9050919050565b6000602082019050818103600083015261565f81614dfe565b9050919050565b6000602082019050818103600083015261567f81614e64565b9050919050565b6000602082019050818103600083015261569f81614eca565b9050919050565b600060208201905081810360008301526156bf81614f30565b9050919050565b600060208201905081810360008301526156df81614f96565b9050919050565b600060208201905081810360008301526156ff8161503c565b9050919050565b6000602082019050818103600083015261571f816150a2565b9050919050565b6000602082019050818103600083015261573f81615108565b9050919050565b6000602082019050818103600083015261575f8161516e565b9050919050565b6000602082019050818103600083015261577f816151d4565b9050919050565b6000602082019050818103600083015261579f8161527a565b9050919050565b60006020820190506157bb60008301846152ef565b92915050565b60006040820190506157d660008301856152ef565b81810360208301526157e881846148af565b90509392505050565b600060408201905061580660008301856152ef565b61581360208301846152ef565b9392505050565b6000604051905081810181811067ffffffffffffffff8211171561584157615840615c26565b5b8060405250919050565b600067ffffffffffffffff82111561586657615865615c26565b5b602082029050602081019050919050565b600067ffffffffffffffff82111561589257615891615c26565b5b602082029050602081019050919050565b600067ffffffffffffffff8211156158be576158bd615c26565b5b601f19601f8301169050602081019050919050565b600067ffffffffffffffff8211156158ee576158ed615c26565b5b601f19601f8301169050602081019050919050565b6000819050602082019050919050565b600081519050919050565b600081519050919050565b600081519050919050565b6000602082019050919050565b600082825260208201905092915050565b600082825260208201905092915050565b600082825260208201905092915050565b600081905092915050565b600061598a82615ad7565b915061599583615ad7565b9250827fffffffffffffffffffffffffffffffffffffffffffffffffffffffffffffffff038211156159ca576159c9615bc8565b5b828201905092915050565b60006159e082615ad7565b91506159eb83615ad7565b9250817fffffffffffffffffffffffffffffffffffffffffffffffffffffffffffffffff0483118215151615615a2457615a23615bc8565b5b828202905092915050565b6000615a3a82615ad7565b9150615a4583615ad7565b925082821015615a5857615a57615bc8565b5b828203905092915050565b6000615a6e82615ab7565b9050919050565b60008115159050919050565b6000819050919050565b60007fffffffff0000000000000000000000000000000000000000000000000000000082169050919050565b600073ffffffffffffffffffffffffffffffffffffffff82169050919050565b6000819050919050565b82818337600083830152505050565b60005b83811015615b0e578082015181840152602081019050615af3565b83811115615b1d576000848401525b50505050565b6000615b2e82615ad7565b91506000821415615b4257615b41615bc8565b5b600182039050919050565b60006002820490506001821680615b6557607f821691505b60208210811415615b7957615b78615bf7565b5b50919050565b6000615b8a82615ad7565b91507fffffffffffffffffffffffffffffffffffffffffffffffffffffffffffffffff821415615bbd57615bbc615bc8565b5b600182019050919050565b7f4e487b7100000000000000000000000000000000000000000000000000000000600052601160045260246000fd5b7f4e487b7100000000000000000000000000000000000000000000000000000000600052602260045260246000fd5b7f4e487b7100000000000000000000000000000000000000000000000000000000600052604160045260246000fd5b6000601f19601f8301169050919050565b60008160e01c9050919050565b600060443d1015615c8357615d26565b60046000803e615c94600051615c66565b6308c379a08114615ca55750615d26565b60405160043d036004823e80513d602482011167ffffffffffffffff82111715615cd157505050615d26565b808201805167ffffffffffffffff811115615cf0575050505050615d26565b8060208301013d8501811115615d0b57505050505050615d26565b615d1482615c55565b60208401016040528296505050505050505b90565b615d3281615a63565b8114615d3d57600080fd5b50565b615d4981615a75565b8114615d5457600080fd5b50565b615d6081615a81565b8114615d6b57600080fd5b50565b615d7781615a8b565b8114615d8257600080fd5b50565b615d8e81615ad7565b8114615d9957600080fd5b5056fea2646970667358221220938e6b0c7fd1d37e17830f80b49cd7f97454b93ce45232eed61313b9c431649f64736f6c63430008000033",
  "immutableReferences": {},
  "source": "// SPDX-License-Identifier: MIT\n\npragma solidity ^0.8.0;\n\nimport \"@openzeppelin/contracts/token/ERC1155/presets/ERC1155PresetMinterPauser.sol\";\nimport \"@openzeppelin/contracts/utils/Counters.sol\";\nimport \"@confluxfans/contracts/token/CRC1155/extensions/CRC1155Enumerable.sol\";\n\n/**\n * @dev This contract extends the preset ERC1155 of OpenZeppelin, including:\n *  - Allow the default admin role to update URI for all tokens.\n *  - More utilities to mint tokens with auto-generated ID (starts from 0).\n *  - Support enumerability operations on chain.\n *\n * @notice the gas/storage cost is very expensive to support the enumerable interface.\n * If there will be a large number of token IDs (e.g. more than 1,000,000), you'd better\n * to abandon the `CRC1155Enumerable` interface and achieve the enumerability off-chain.\n */\ncontract PresetAutoId is ERC1155PresetMinterPauser, CRC1155Enumerable {\n    using Counters for Counters.Counter;\n\n    // Counter to auto generate token ID.\n    Counters.Counter private _tokenIdTracker;\n\n    constructor(string memory uri) ERC1155PresetMinterPauser(uri) {}\n\n    /**\n     * @dev Update the URI for all tokens.\n     *\n     * Requirements:\n     *\n     * - the caller must have the `DEFAULT_ADMIN_ROLE`.\n     */\n    function setURI(string memory newuri) public virtual {\n        require(hasRole(DEFAULT_ADMIN_ROLE, _msgSender()), \"Preset: must have admin role to set URI\");\n        _setURI(newuri);\n    }\n\n    /**\n     * @dev Creates `amount` new tokens for `to` with auto-generated token ID and additional data.\n     *\n     * Requirements:\n     *\n     * - the caller must have the `MINTER_ROLE`.\n     */\n    function mint(\n        address to,\n        uint256 amount,\n        bytes memory data\n    ) public virtual {\n        mint(to, _tokenIdTracker.current(), amount, data);\n        _tokenIdTracker.increment();\n    }\n\n    /**\n     * @dev Creates tokens with auto-generated token IDs in batch.\n     * @param to address to mint tokens.\n     * @param amounts amount for each token ID to mint.\n     * @param data Additional data used when `to` address is a contract.\n     *\n     * Requirements:\n     *\n     * - the caller must have the `MINTER_ROLE`.\n     */\n    function mintBatch(\n        address to,\n        uint256[] memory amounts,\n        bytes memory data\n    ) public virtual {\n        uint256[] memory tokenIds = new uint256[](amounts.length);\n\n        for (uint256 i = 0; i < amounts.length; i++) {\n            tokenIds[i] = _tokenIdTracker.current();\n            _tokenIdTracker.increment();\n        }\n\n        mintBatch(to, tokenIds, amounts, data);\n    }\n\n    /**\n     * @dev See {ERC1155-_beforeTokenTransfer}.\n     *\n     * Requirements:\n     *\n     * - each value in `amounts` should not be zero.\n     */\n    function _beforeTokenTransfer(\n        address operator,\n        address from,\n        address to,\n        uint256[] memory ids,\n        uint256[] memory amounts,\n        bytes memory data\n    ) internal virtual override(ERC1155PresetMinterPauser, CRC1155Enumerable) {\n        for (uint256 i = 0; i < amounts.length; i++) {\n            require(amounts[i] > 0, \"Preset: amount is zero\");\n        }\n\n        super._beforeTokenTransfer(operator, from, to, ids, amounts, data);\n    }\n\n    /**\n     * @dev See {IERC165-supportsInterface}.\n     */\n    function supportsInterface(bytes4 interfaceId)\n        public\n        view\n        virtual\n        override(ERC1155PresetMinterPauser, CRC1155Enumerable)\n        returns (bool)\n    {\n        return super.supportsInterface(interfaceId);\n    }\n}\n",
  "sourcePath": "/f/Digitaltwins/contracts/PresetAutoId.sol",
  "compiler": {
    "name": "solc",
    "version": "0.8.0+commit.c7dfd78e.Emscripten.clang"
  },
  "schemaVersion": "3.3.4",
  "updatedAt": "2022-05-19T01:55:03.860Z",
  "devdoc": {
    "details": "This contract extends the preset ERC1155 of OpenZeppelin, including:  - Allow the default admin role to update URI for all tokens.  - More utilities to mint tokens with auto-generated ID (starts from 0).  - Support enumerability operations on chain.",
    "kind": "dev",
    "methods": {
      "balanceOf(address,uint256)": {
        "details": "See {IERC1155-balanceOf}. Requirements: - `account` cannot be the zero address."
      },
      "balanceOfBatch(address[],uint256[])": {
        "details": "See {IERC1155-balanceOfBatch}. Requirements: - `accounts` and `ids` must have the same length."
      },
      "exists(uint256)": {
        "details": "Indicates whether the specified `tokenId` exists or not."
      },
      "getRoleAdmin(bytes32)": {
        "details": "Returns the admin role that controls `role`. See {grantRole} and {revokeRole}. To change a role's admin, use {_setRoleAdmin}."
      },
      "getRoleMember(bytes32,uint256)": {
        "details": "Returns one of the accounts that have `role`. `index` must be a value between 0 and {getRoleMemberCount}, non-inclusive. Role bearers are not sorted in any particular way, and their ordering may change at any point. WARNING: When using {getRoleMember} and {getRoleMemberCount}, make sure you perform all queries on the same block. See the following https://forum.openzeppelin.com/t/iterating-over-elements-on-enumerableset-in-openzeppelin-contracts/2296[forum post] for more information."
      },
      "getRoleMemberCount(bytes32)": {
        "details": "Returns the number of accounts that have `role`. Can be used together with {getRoleMember} to enumerate all bearers of a role."
      },
      "grantRole(bytes32,address)": {
        "details": "Grants `role` to `account`. If `account` had not been already granted `role`, emits a {RoleGranted} event. Requirements: - the caller must have ``role``'s admin role."
      },
      "hasRole(bytes32,address)": {
        "details": "Returns `true` if `account` has been granted `role`."
      },
      "isApprovedForAll(address,address)": {
        "details": "See {IERC1155-isApprovedForAll}."
      },
      "mint(address,uint256,bytes)": {
        "details": "Creates `amount` new tokens for `to` with auto-generated token ID and additional data. Requirements: - the caller must have the `MINTER_ROLE`."
      },
      "mint(address,uint256,uint256,bytes)": {
        "details": "Creates `amount` new tokens for `to`, of token type `id`. See {ERC1155-_mint}. Requirements: - the caller must have the `MINTER_ROLE`."
      },
      "mintBatch(address,uint256[],bytes)": {
        "details": "Creates tokens with auto-generated token IDs in batch.",
        "params": {
          "amounts": "amount for each token ID to mint.",
          "data": "Additional data used when `to` address is a contract. Requirements: - the caller must have the `MINTER_ROLE`.",
          "to": "address to mint tokens."
        }
      },
      "mintBatch(address,uint256[],uint256[],bytes)": {
        "details": "xref:ROOT:erc1155.adoc#batch-operations[Batched] variant of {mint}."
      },
      "pause()": {
        "details": "Pauses all token transfers. See {ERC1155Pausable} and {Pausable-_pause}. Requirements: - the caller must have the `PAUSER_ROLE`."
      },
      "paused()": {
        "details": "Returns true if the contract is paused, and false otherwise."
      },
      "renounceRole(bytes32,address)": {
        "details": "Revokes `role` from the calling account. Roles are often managed via {grantRole} and {revokeRole}: this function's purpose is to provide a mechanism for accounts to lose their privileges if they are compromised (such as when a trusted device is misplaced). If the calling account had been revoked `role`, emits a {RoleRevoked} event. Requirements: - the caller must be `account`."
      },
      "revokeRole(bytes32,address)": {
        "details": "Revokes `role` from `account`. If `account` had been granted `role`, emits a {RoleRevoked} event. Requirements: - the caller must have ``role``'s admin role."
      },
      "safeBatchTransferFrom(address,address,uint256[],uint256[],bytes)": {
        "details": "See {IERC1155-safeBatchTransferFrom}."
      },
      "safeTransferFrom(address,address,uint256,uint256,bytes)": {
        "details": "See {IERC1155-safeTransferFrom}."
      },
      "setApprovalForAll(address,bool)": {
        "details": "See {IERC1155-setApprovalForAll}."
      },
      "setURI(string)": {
        "details": "Update the URI for all tokens. Requirements: - the caller must have the `DEFAULT_ADMIN_ROLE`."
      },
      "supportsInterface(bytes4)": {
        "details": "See {IERC165-supportsInterface}."
      },
      "tokenByIndex(uint256)": {
        "details": "Returns the `index`-th tokenId stored by the contract."
      },
      "tokenCountOf(address)": {
        "details": "Returns the number of token ids held by `owner`."
      },
      "tokenOfOwnerByIndex(address,uint256)": {
        "details": "Returns the `index`-th tokenId held by `owner`."
      },
      "tokens(uint256,uint256)": {
        "details": "Returns token IDs in pagination view."
      },
      "tokensOf(address,uint256,uint256)": {
        "details": "Returns token IDs of specified `owner` in pagination view."
      },
      "totalSupply()": {
        "details": "Returns the number of different tokenIds stored by the contract."
      },
      "totalSupply(uint256)": {
        "details": "Returns the total amount of tokens for the specified `tokenId`."
      },
      "unpause()": {
        "details": "Unpauses all token transfers. See {ERC1155Pausable} and {Pausable-_unpause}. Requirements: - the caller must have the `PAUSER_ROLE`."
      },
      "uri(uint256)": {
        "details": "See {IERC1155MetadataURI-uri}. This implementation returns the same URI for *all* token types. It relies on the token type ID substitution mechanism https://eips.ethereum.org/EIPS/eip-1155#metadata[defined in the EIP]. Clients calling this function must replace the `\\{id\\}` substring with the actual token type ID."
      }
    },
    "version": 1
  },
  "userdoc": {
    "kind": "user",
    "methods": {},
    "notice": "the gas/storage cost is very expensive to support the enumerable interface. If there will be a large number of token IDs (e.g. more than 1,000,000), you'd better to abandon the `CRC1155Enumerable` interface and achieve the enumerability off-chain.",
    "version": 1
  }
}